S01200006D6963726F6D6F7573652E73726563CF
S11300003DC100000C946E0E5AC1000058C100009E
S113001056C1000054C1000052C1000050C100008C
S11300204EC100004CC100004AC1000048C100009C
S113003046C1000044C1000042C1000040C10000AC
S11300403EC100003CC100003AC1000038C10000BC
S113005036C1000034C1000032C1000030C10000CC
S11300602EC100002CC100002AC1000028C10000DC
S113007026C1000024C1000022C1000020C10000EC
S11300801EC100001CC100001AC1000018C10000FC
S113009016C1000014C1000012C100000C949B0D95
S11300A00C94B10D0C94C70D0C94DD0D08C1000027
S11300B006C1000004C1000002C1000000C100002C
S11300C0FEC00000FCC00000FAC00000F8C0000040
S11300D0F6C00000F4C00000F2C00000F0C0000050
S11300E0EEC00000ECC00000EAC00000E8C0000060
S11300F0E6C00000E4C00000E2C00000E0C0000070
S1130100DEC00000DCC00000DAC00000D8C000007F
S11301100C94240ED4C00000D2C00000D0C0000053
S1130120CEC00000CCC00000CAC00000C8C000009F
S1130130C6C00000C4C00000C2C00000C0C00000AF
S1130140BEC00000BCC00000BAC000000C94330E56
S1130150B6C00000B4C00000B2C00000B0C00000CF
S1130160AEC00000ACC00000AAC00000A8C00000DF
S1130170A6C00000A4C00000A2C00000A0C00000EF
S11301809EC000009CC000009AC0000098C00000FF
S113019096C0000094C0000092C0000090C000000F
S11301A00C94F30D0C94FD0D8AC0000088C000006F
S11301B086C0000084C0000082C0000080C000002F
S11301C07EC000007CC000007AC0000078C000003F
S11301D076C0000074C0000072C0000070C000004F
S11301E06EC000006CC000006AC0000068C000005F
S11301F066C0000064C0000062C0000005A84CCDC9
S1130200B2D44EB93836A9020C50B9918688083C4C
S1130210A6AAAA2ABE000000803F4272616B205841
S113022054414C00426C616420637A756A6E696B58
S11302306F77005A6C61206C69637A6261002043B5
S11302403A200020002000205400205400206E009A
S113025074000000205400205400206E00740048F4
S1130260656C6C6F00417761726961210066666636
S113027000430042004100515151000011241FBEAF
S1130280CFEFCDBFDFE3DEBF00E00CBF10E2A0E0A4
S1130290B0E2E4EDF9E400E00BBF02C007900D9278
S11302A0A630B107D9F726E3A6E0B0E201C01D925B
S11302B0A231B207E1F70E94A60E0C94E824A0CE66
S11302C06F927F928F929F92AF92BF92CF92DF9262
S11302D0EF92FF920F931F93CF93DF9381E080936C
S11302E0002010920B2010920A20109209201092E4
S11302F00820109207201092062010924522109296
S11303004A2380930320E12CF12C00E010E00F2E0F
S1130310FFE0AF2EF02D0F2EFDE09F2EF02D40C0FC
S11303202B2D352FBC016F01A0821992D3011D9290
S11303303D01411104C09082811114C041C081115A
S113034008C08080B82DBB7F8B2E80824F30D9F4BB
S113035002C04F3039F4D6018C90B82DBE7F8B2E5D
S1130360D6018C928F3079F422953295307F3227E2
S1130370207F3227260F371FF901EC5AFA4D80816E
S1130380877F808305C0019631968031910541F6BF
S11303900F5F1F4FB0E1EB0EF11C00311105A1F00E
S11303A0F701EC5AFA4DE701C85BDD4DC701825BEA
S11303B09C4D3C0180E090E0B02E512F402FB0CFF7
S11303C020812B7F2083DFCFDF91CF911F910F916D
S11303D0FF90EF90DF90CF90BF90AF909F908F9061
S11303E07F906F90089580910320823079F018F403
S11303F0813031F008958430A9F0883069F008958F
S1130400809145228F5F80934522089580914522F3
S1130410815080934522089580914A238F5F809371
S11304204A23089580914A23815080934A23089552
S11304308130E1F4909103209230A1F018F49130CE
S113044069F014C0943031F0983081F481E08093E5
S11304500320089582E080930320089584E080932C
S11304600320089588E08093032008958230D9F40E
S1130470809103208230A1F018F4813069F008954E
S1130480843031F0883079F482E080930320089539
S113049081E080930320089588E0809303200895E9
S11304A084E0809303200895CF9382E0C1DFE0913C
S11304B0452280914A2390E1E99FF0011124E80F3D
S11304C0F11DEC5AFA4D9081809103209823C1E0EC
S11304D009F0C0E081E0ACDF8C2FCF9108958091CA
S11304E0452280930F2080914A2380930E20DCDFE5
S11304F0811102C082E09CDFE091452280914A2371
S113050090E1E99FF0011124E80FF11DEC5AFA4D36
S11305109081809103208923A9F481E089DFE0910F
S1130520452280914A2390E1E99FF0011124E80FCC
S1130530F11DEC5AFA4D908180910320892311F426
S113054081E076DF50CF089520E1829FC00111241D
S1130550FC01E60FF11DEC5AFA4D8081982F9E7034
S11305609E3099F0982F9D709D3089F0982F9B7044
S11305709B3079F0982F9770973069F0982F9F707F
S113058081E09F3049F080E0089581E0089581E0A2
S1130590089581E0089581E0089580FF12C005C0A8
S11305A0892F817090FF08C001C020E081E001C064
S11305B0880F2A95EAF7089596952F5F243081F7DE
S11305C00895982F969521E0EBCF0F931F93CF9327
S11305D0DF938091452280930F2060914A2360939A
S11305E00E2040E1849F90011124260F311DF90152
S11305F0E25BFC4DC081F901EC5AFA4D208130E0F8
S1130600A90142955295507F5427407F5427242BAB
S1130610352B209530952C2B2F3F21F481E08093AE
S11306200D207EC191DF882311F0C11102C057DF74
S11306305AC082E0FDDE82E0FBDE809145222091FB
S11306404A2330E0E82FF0E0D90150E1859FA00D66
S1130650B11D1124A25BBC4DDC918D2F90E0C091A3
S113066003204C2F50E0BA016095709568237923DC
S1130670672B51F042955295507F5427407F542761
S113068048235923452B71F1E295F295F07FFE271B
S1130690E07FFE272E0F3F1FF901EC5AFA4D00812F
S11306A08D2F8C2B8095802378DF182F811108C023
S11306B0D295DF70CD2B8C2F809580236EDF182F81
S11306C081E0B6DE81E0B4DE80910320181751F09A
S11306D082E0AEDE80910320181721F081E0A8DECD
S11306E081E0A6DE80DE20910F2030914522231781
S11306F008F045C080914A2390E0E32FF0E0DC014C
S113070040E1349FA00DB11D1124A25BBC4D4C915E
S113071041FD1BC0E295F295F07FFE27E07FFE27A6
S11307208E0F9F1FFC01E25BFC4D42604083809171
S11307300E2050E1259FF0011124E80FF11DE25B2A
S1130740FC4D8081816080831AC0E295F295F07F30
S1130750FE27E07FFE278E0F9F1FFC01E25BFC4D0E
S11307604062408380910E2090E1299FF001112482
S1130770E80FF11DE25BFC4D8081806180833217BC
S113078008F045C080914A2390E0E32FF0E0DC01BB
S113079040E1349FA00DB11D1124A25BBC4D4C91CE
S11307A040FD1BC0E295F295F07FFE27E07FFE2717
S11307B08E0F9F1FFC01E25BFC4D416040838091E2
S11307C00E2050E1259FF0011124E80FF11DE25B9A
S11307D0FC4D8081826080831AC0E295F295F07F9F
S11307E0FE27E07FFE278E0F9F1FFC01E25BFC4D7E
S11307F04061408380910E2090E1299FF0011124F3
S1130800E80FF11DE25BFC4D8081806280834091A2
S11308100E2080914A23481708F040C0682F70E0EA
S1130820E32FF0E0DB0150E1359FA00DB11D112451
S1130830A25BBC4D9C9192FD19C0E295F295F07FAC
S1130840FE27E07FFE276E0F7F1FFB01E25BFC4D5E
S11308509460908390E1299FF0011124E40FF11D2D
S1130860E25BFC4D90819860908318C0E295F2950C
S1130870F07FFE27E07FFE276E0F7F1FFB01E25B08
S1130880FC4D9064908350E1259FF0011124E40F06
S1130890F11DE25BFC4D908190689083841708F011
S11308A03FC090E0E32FF0E0DC0150E1359FA00D64
S11308B0B11D1124A25BBC4D3C9133FD19C0E295DE
S11308C0F295F07FFE27E07FFE278E0F9F1FFC012D
S11308D0E25BFC4D3860308380E1289FF0011124F5
S11308E0E40FF11DE25BFC4D80818460808318C0BD
S11308F0E295F295F07FFE27E07FFE278E0F9F1F83
S1130900FC01E25BFC4D3068308390E1299FF001EB
S11309101124E40FF11DE25BFC4D8081806480832F
S1130920DF91CF911F910F9108952F923F924F9293
S11309305F926F927F928F929F92AF92BF92CF926B
S1130940DF92EF92FF920F931F93CF93DF93CDB774
S1130950DEB7C958D109CDBFDEBFCB57DF4F88837F
S1130960C558D040C757DF4F6883C958D040942E2C
S1130970CE57DF4F2883C258D040CF57DF4F08836C
S1130980C158D040CA57DF4FE882C658D0401092B1
S11309900120E2E5F4E242E555E22FEF08C021939D
S11309A08E179F07E1F7FC018417950719F0CF0113
S11309B04096F5CFFE013296DE01AE5BBF4FAD012E
S11309C08FEFBD019F0121503109D9018C938083A0
S11309D09B0121503109D9018C93DB018C93329610
S11309E06E5F7F4FE417F50769F7CB57DF4F388108
S11309F0C558D040B0E13B9FF0011124C757DF4FE9
S1130A008881C958D040E80FF11DEE5AFB4D108281
S1130A1039838A83391508F4A7C1CF57DF4F9881EA
S1130A20C158D040931708F4B5C1CE57DF4FA88101
S1130A30C258D0408A1708F4C3C1CA57DF4FB881DF
S1130A40C658D040B81708F001C2CC24C394EFEFC5
S1130A50C757DF4FE883C958D040FFEFCB57DF4F6C
S1130A60F883C558D0405E0131E4A30EB11CCE0119
S1130A7001963C01BAC1FA013197F0802F2D30E084
S1130A80682F70E0F90190E1899FE00DF11D1124B8
S1130A90EC5AFA4D908193FF45C089010F5F1F4FB7
S1130AA0FB01E295F295F07FFE27E07FFE27E00F41
S1130AB0F11FEE5AFB4DE081EF3FA1F5FB01E295FA
S1130AC0F295F07FFE27E07FFE27E00FF11FEE5A3C
S1130AD0FB4DC082EE2DF0E0EE0FFF1FEA0DFB1D73
S1130AE08083882483948F0C8182E3948915D0F0C9
S1130AF0CF57DF4FE881C158D040E81798F0CD5761
S1130B00DF4FE881F981C358D0400E171F0754F016
S1130B10C957DF4FE881F981C758D040E017F10782
S1130B200CF0D0C092FF45C0890101501109FB01AE
S1130B30E295F295F07FFE27E07FFE27E00FF11F9C
S1130B40EE5AFB4DE081EF3FA1F5FB01E295F295F2
S1130B50F07FFE27E07FFE27E00FF11FEE5AFB4DEA
S1130B60C082EE2DF0E0EE0FFF1FEA0DFB1D808327
S1130B7088248A948F0C8182E3948915D0F0CF570E
S1130B80DF4FF881C158D040F81798F0CD57DF4FA8
S1130B90E881F981C358D0400E171F0754F0C95794
S1130BA0DF4FE881F981C758D040E017F1070CF016
S1130BB095C090FF3EC08B010F5F1F4FF801E29577
S1130BC0F295F07FFE27E07FFE27E20FF31FEE5A37
S1130BD0FB4DE081EF3F69F5F801E295F295F07F76
S1130BE0FE27E07FFE27E20FF31FEE5AFB4DC08283
S1130BF0EE2DF0E088248394880EEE0FFF1FEA0D9B
S1130C00FB1D8082F182E3940415150594F02016EF
S1130C1031067CF0CE57DF4FF881C258D040FF1622
S1130C2040F0CA57DF4FE881C658D040EF1508F0AE
S1130C3061C091FF3AC061507109FB01E295F295E0
S1130C40F07FFE27E07FFE27E20FF31FEE5AFB4DF5
S1130C5090819F3F51F5FB01E295F295F07FFE27CD
S1130C60E07FFE27E20FF31FEE5AFB4DC082EE2D0C
S1130C70F0E08150EE0FFF1FEA0DFB1D8083F1822F
S1130C80E394641575058CF02616370674F0CE5778
S1130C90DF4FF881C258D040FF1638F0CA57DF4FF3
S1130CA03881C658D0403F1588F54A175B07D1F103
S1130CB04E5F5F4FFA01329780818F3F09F0DBCEA0
S1130CC020E031C0C757DF4F8882C958D040CB5786
S1130CD0DF4F8883C558D04021E025C0C757DF4F78
S1130CE08882C958D040CB57DF4F8883C558D0403D
S1130CF021E019C0C757DF4FF882C958D040CB57FD
S1130D00DF4F8882C558D04021E00DC0C757DF4F60
S1130D10F882C958D040CB57DF4F8883C558D0409C
S1130D2021E001C020E0E1100AC001C020E0CB575F
S1130D30DF4F8881C558D0408F3F09F4A1C1F3012A
S1130D403196C3018196DF011197DC92D0823296ED
S1130D50E817F907C1F7C3949A2D8B2D530121117C
S1130D6075C0692E782E66C0CC24C3949FEFC757F4
S1130D70DF4F9883C958D040AFEFCB57DF4FA883DC
S1130D80C558D0405E01B1E4AB0EB11CFE013196F2
S1130D903F012BC0CC24C394FFEFC757DF4FF88328
S1130DA0C958D0403FEFCB57DF4F3883C558D040A8
S1130DB05E0181E4A80EB11CDE0111963D0115C04F
S1130DC0CC24C394BFEFC757DF4FB883C958D04072
S1130DD0EFEFCB57DF4FE883C558D0405E01F1E415
S1130DE0AF0EB11CCE0101963C01CE57DF4FB88146
S1130DF0C258D040AB2FB0E0CD57DF4FA883B983A2
S1130E00C358D040CA57DF4FF881C658D040EF2F9F
S1130E10F0E0C957DF4FE883F983C758D040492C25
S1130E20512CCF57DF4F3881C158D040232E312C5D
S1130E30DD24DA94D3018C918F3F09F477CFA30199
S1130E404E5F5F4FA05CBF4FE12C15CEC757DF4FFD
S1130E50B881C958D0406B2F70E0CB57DF4FE88181
S1130E60C558D040EE2EF12CFB01CB57DF4F8881C3
S1130E70C558D04030E1839FE00DF11D1124EE5A96
S1130E80FB4D1081212F30E0E6E4F0E246E850E229
S1130E9081E1DF0111978C9380833296E417F50783
S1130EA0C1F7D901AA0FBB1FAB5BBF4DCB57DF4FB7
S1130EB09881C558D0409C93C757DF4FE881C958E3
S1130EC0D0401196EC93F701E295F295F07FFE275E
S1130ED0E07FFE276E0F7F1FFB01E85BFD4D8081E5
S1130EE0811103C081E080930120A901415051097F
S1130EF00AF4C1C0009101206901CB57DF4F28815A
S1130F00C558D040C757DF4FF880C958D0406F2D1F
S1130F1070E0822F90E0FB0130E1239FE00DF11D92
S1130F201124EC5AFA4D308133FF27C0FC01E295BD
S1130F30F295F07FFE27E07FFE27EE5AFB4DE60F89
S1130F40F71FE181F0E0E417F507B9F4F394829513
S1130F509295907F9827807F98278F0D911D885BAD
S1130F609D4DDC018C91811101C001E0EE0FFF1F4A
S1130F70EB5BFF4D2083F18277C032FF27C0FC0179
S1130F80E295F295F07FFE27E07FFE27E60FF71F3C
S1130F90EF5AFB4DE081F0E0E417F507B9F4FA9459
S1130FA082959295907F9827807F98278F0D911D29
S1130FB0885B9D4DDC018C91811101C001E0EE0F35
S1130FC0FF1FEB5BFF4D2083F1824EC030FF25C035
S1130FD0FC013196E295F295F07FFE27E07FFE2733
S1130FE0E60FF71FEE5AFB4DE081F0E0E417F5073A
S1130FF0A1F42F5FB0E12B9F600D711D1124685B7C
S11310007D4DDB018C91811101C001E0EE0FFF1FCA
S1131010EB5BFF4D2083F18227C031FF25C0FC012B
S11310203197E295F295F07FFE27E07FFE27E60FE9
S1131030F71FEE5AFB4D808190E084179507A1F4C9
S11310402150B0E12B9F600D711D1124FB01E85B61
S1131050FD4D3081311101C001E0880F991FFC0161
S1131060EB5BFF4D2083F1824150510908F04FCFD3
S113107096010093012010934D23822F932F02C0D9
S11310808FEF90E0C757DF4FCDBFDEBFDF91CF9129
S11310901F910F91FF90EF90DF90CF90BF90AF9092
S11310A09F908F907F906F905F904F903F902F9084
S11310B00895EF920F9390914D23309106203111B2
S11310C004C091E09093022004C0309102203323A5
S11310D039F02BDC982F81E080930C2010920220B1
S11310E0892F90E020914522FC01EE0FFF1FEB5B5E
S11310F0FF4D308132130AC0880F991FFC01EB5B4E
S1131100FF4D918180914A23981749F180910C20D9
S1131110E82FF0E0EE0FFF1FEB5BFF4D3081918174
S1131120231720F421E02093032003C022E020931E
S1131130032020914A23291720F428E02093032038
S113114005C0921718F424E020930320309345221D
S113115090934A238F5F80930C2080E001C081E04C
S11311600F91EF900895EF920F93CF938091062003
S11311708F5F80930620809100208823A1F06894DB
S1131180EE24E3F808E027E047E060914A238091E9
S113119045228FDF882309F490C01092002081E05B
S11311A080930B2004C080910B208823F9F00DDA82
S11311B06894EE24E3F808E027E047E060E080E08C
S11311C0B4DB80910120811178C010920B20C1E022
S11311D0C0930A20E12C00E020E040E060914A2323
S11311E080914522A2DBC0930C2067C080910A2025
S11311F08823E1F0E12C00E020E040E060914A2304
S11312008091452256DF882309F457C010920A20A2
S1131210C1E0C09309206894EE24E3F808E027E0D5
S113122047E060E080E081DBC0930C2080910920DE
S11312308823E9F06894EE24E3F808E027E047E027
S113124060914A238091452234DF8823B1F11092C2
S1131250092081E08093082080930C20E12C00E099
S113126020E040E060914A23809145225EDB80913A
S11312700820882311F1E12C00E020E040E0609197
S11312804A238091452215DF8823B9F01092082063
S113129081E08093092080930C206894EE24E3F885
S11312A008E027E047E060E080E03FDB27E047E03C
S11312B060914A2380914522FCDECF910F91EF90FB
S11312C008951F93CF93DF9380910D2081114FC018
S11312D0C091032010914522D0914A2344DFC130AC
S11312E029F4809103208230B1F443C0C83029F43A
S11312F0809103208430C9F43EC0C23029F4809127
S11313000320813069F439C0C430C9F580910320C9
S1131310883081F436C080914A23D817A0F10FC0D9
S113132080914A238D1788F110C08091452281173E
S113133070F111C080914522181758F112C08091A4
S11313404A238D1740F188E02DC080914A23D81795
S113135020F188E027C080914522181700F188E029
S113136021C0809145228117E0F487E01BC080E012
S113137019C085E017C085E015C085E013C088E07A
S113138011C085E00FC086E00DC086E00BC086E08A
S113139009C086E007C087E005C087E003C087E096
S11313A001C088E0DF91CF911F91089580FF04C0B0
S11313B090E19093450603C090E19093460681FF27
S11313C004C090E29093450603C090E290934606D1
S11313D082FF04C090E49093450603C090E4909388
S11313E0460683FF04C080E880934506089580E89C
S11313F08093460608950F931F93CF93DF93082F8E
S1131400C0E4D6E018E01D8382958F70CFDF1E8381
S113141000001D83802FCADF1E8387EC90E00197B4
S1131420F1F700C00000DF91CF911F910F91089553
S113143094E090934606DFCF089594E09093450698
S1131440DACF0895CF93DF93EC012196FC018491C8
S1131450882331F0F2DFFE01849121968111FACFC5
S1131460DF91CF91089590E4699F800D11248068E5
S1131470DFCF089581E0DCDF8FE39FE10197F1F78F
S113148000C000000895FF920F931F93CF93DF9342
S1131490E0E4F6E08CEF81838FE19EE40197F1F7BD
S11314A000C000008CE08683C3E000E416E0D8E0CE
S11314B0FD2EF801F58283E079DFF801D6838FE110
S11314C09EE40197F1F700C00000C15091F7C0E419
S11314D0D6E018E01D8382E069DF1E83EFE9FFE0B8
S11314E03197F1F700C0000088E2A2DF88E0A0DFB6
S11314F081E09EDF8FE39FE10197F1F700C00000D8
S113150086E096DF8CE094DFDF91CF911F910F91FD
S1131510FF9008958F929F92AF92BF92EF92FF92A5
S11315201F93CF93DF93CDB7DEB72A97CDBFDEBF2E
S1131530611571058105910519F480E37EDF30C0E2
S113154010E00F2EFAE08F2E912CA12CB12CF02D4F
S1131550EE24E394F12CEC0EFD1EE10EF11C17FDBC
S1131560FA94A50194010E94B724F7016083622FC5
S1131570732F842F952F1F5F6115710581059105C8
S113158039F711506AF0E1E0F0E0EC0FFD1FE10FD4
S1131590F11D17FDFA958081805D4FDF11509AF798
S11315A02A96CDBFDEBFDF91CF911F91FF90EF90C0
S11315B0BF90AF909F908F900895AAECB1E092E015
S11315C09C93E82FF0E084911C920895E0E5F0E00C
S11315D08BEC828388E08083818183FF22C003C0F7
S11315E0918193FF13C02FEF89EF90E02150804049
S11315F09040E1F700C0000088ED84BF93E0909331
S1131600400084BF81E080935300089525E32A9528
S1131610F1F70000815021F72DDF8AE192E012CF2B
S1131620089585E38A95F1F700008EEFE0E5F0E098
S1131630D7CF0F931F93CF93DF93C8DFC0E4D2E0DB
S113164014E01C8300E1098380E2B7DF8C8781E228
S1131650B4DF8D870A831B8281E0888397E09093AF
S1131660A200E0E2F6E032E0328388A319A28E837E
S113167093E09AA3828388A728E029A73E839AA7A8
S1131680128388AB09AB1E839AAB228388AF88E1AF
S113169089AF2E839AAF7894DF91CF911F910F91E8
S11316A008958617970721F06417750721F40895A4
S11316B0862F972F08958FEF9FEF0895EF92FF9253
S11316C00F931F93CF93DF93CDB7DEB76497CDBF4E
S11316D0DEBFCE0101967C01AE014B5E5F4FFC0183
S11316E000E816E060E120E432E0D80115966C933E
S11316F0D901D8968C91D8978068D8968C93B5E305
S1131700BA95F1F70000D80116966C938091522592
S113171090915325853CB9E09B0718F4808391830D
S113172002C0108211823296E417F507F1F620E028
S113173030E0F701819191917F01280F391FE4175F
S1131740F507B9F781E090E02C3A3D4010F080E0D5
S113175090E06496CDBFDEBFDF91CF911F910F91D2
S1131760FF90EF900895EF92FF920F931F93CF9302
S1131770DF93CDB7DEB76497CDBFDEBFCE01019650
S11317807C01AE014B5E5F4FFC0100E816E060E8AF
S113179020E432E0D80115966C93D90190968C918F
S11317A09097806890968C93B5E5BA95F1F7000010
S11317B0D80116966C9380914E2490914F24853CC9
S11317C0B9E09B0718F48083918302C010821182D0
S11317D03296E417F507F1F620E030E0F701819145
S11317E091917F01280F391FE417F507B9F781E0BC
S11317F090E02439314110F080E090E06496CDBF50
S1131800DEBFDF91CF911F910F91FF90EF9008956C
S1131810EF92FF920F931F93CF93DF93CDB7DEB771
S11318206497CDBFDEBFCE0101967C01AE014B5E55
S11318305F4FFC0100E816E060E420E432E0D801E8
S113184015966C93D90198968C9198978068989680
S11318508C93B0E5BA95F1F7D80116966C93809104
S1131860462290914722853CB9E09B0718F4808377
S1131870918302C0108211823296E417F507F9F6BB
S113188020E030E0F701819191917F01280F391F09
S11318904E175F07B9F7ADECBCEC0E94D9249695BE
S11318A087959695879596958795843B910548F0FD
S11318B021E030E0843F914008F020E0822F932F14
S11318C002C082E090E06496CDBFDEBFDF91CF918D
S11318D01F910F91FF90EF900895EF92FF920F9355
S11318E01F93CF93DF93CDB7DEB76497CDBFDEBF31
S11318F0CE0101967C01AE014B5E5F4FFC0100E816
S113190016E060E220E432E0D80115966C93D90128
S1131910D0968C91D0978068D0968C93B5E4BA9584
S1131920F1F70000D80116966C9380914B239091A7
S11319304C23853CB9E09B0718F48083918302C053
S1131940108211823296E417F507F1F620E030E0B8
S1131950F701819191917F01280F391F4E175F077D
S1131960B9F7ADECBCEC0E94D92496958795969571
S11319708795969587958E3B910548F021E030E058
S11319808837954008F020E0822F932F02C082E030
S113199090E06496CDBFDEBFDF91CF911F910F9190
S11319A0FF90EF900895E0E6F6E088E3818380E21B
S11319B0868380E18683E0E0F9E083E9818384E63D
S11319C090E086A397A316A617A681E080830895C6
S11319D0E0E6F6E087E0818382E0868384E0868324
S11319E010922809109229090895082E000C990BC9
S11319F080932E0990932F09613039F4E0E6F6E0E4
S1131A0080E2858380E1858309C0623039F4E0E6B1
S1131A10F6E080E2868380E185830895E0E6F6E0DF
S1131A2080E2858380E186830895082E000C990B5B
S1131A308093280990932909611107C0E0E6F6E034
S1131A4082E0868384E086830895613039F4E0E699
S1131A50F6E082E0858384E085830895623039F47A
S1131A60E0E6F6E082E0868384E085830895E0E69C
S1131A70F6E082E0858384E08683089580E28093A3
S1131A80A706089580E48093A706089580E88093CC
S1131A90A506E0E8F3E087E1828383E980838DE2B1
S1131AA0858381E084830895CF93DF937894C0EA9B
S1131AB0D6E08CE08A8384E08A8728E02B878AE159
S1131AC08A8B8B8B85E08987E0E4F6E08BE1808B61
S1131AD0818BE0E8F1E090E690839FE09087A0E0BE
S1131AE0B8E02C9328E613962C93888B898B88E78F
S1131AF082839287E0E0FBE08AE080838AE6838346
S1131B0052DF66DFE0E8F6E080EF8183868380EED3
S1131B1089838E83B8DC8DDDB9DFE0E4F9E083E00E
S1131B208683118287E0808380E590E086A397A373
S1131B30DF91CF9108951F920F920FB60F92112447
S1131B408F939F93809150029091510280934E24E1
S1131B5090934F249F918F910F900FBE0F901F90E1
S1131B6018951F920F920FB60F9211248F939F9383
S1131B70809152029091530280934622909347227F
S1131B809F918F910F900FBE0F901F9018951F92E9
S1131B900F920FB60F9211248F939F93809154024A
S1131BA09091550280934B2390934C239F918F9156
S1131BB00F900FBE0F901F9018951F920F920FB6A3
S1131BC00F9211248F939F93809156029091570204
S1131BD080935225909353259F918F910F900FBE20
S1131BE00F901F9018951F920F920FB60F92112409
S1131BF00F900FBE0F901F9018951F920F920FB663
S1131C000F9211240BB60F922F933F934F935F9330
S1131C106F937F938F939F93AF93BF93EF93FF93B0
S1131C202DDFFF91EF91BF91AF919F918F917F91A4
S1131C306F915F914F913F912F910F900BBE0F9039
S1131C400FBE0F901F9018951F920F920FB60F9210
S1131C5011248F9380E88093A7068F910F900FBE75
S1131C600F901F9018951F920F920FB60F92112488
S1131C700BB60F922F933F934F935F936F937F9382
S1131C808F939F93AF93BF93EF93FF93FBDE2091CA
S1131C906726309168264091692650916A266091A2
S1131CA00B3670910C3680910D3690910E360E9451
S1131CB0351C0E943C1FFF91EF91BF91AF919F9102
S1131CC08F917F916F915F914F913F912F910F90E1
S1131CD00BBE0F900FBE0F901F9018951F920F927E
S1131CE00FB60F9211240BB60F922F933F934F937D
S1131CF05F936F937F938F939F93AF93BF93EF9370
S1131D00FF93E0E5F0E0838182608383B3DB85E6C3
S1131D1092E098DB2FEF83ED90E3215080409040D8
S1131D20E1F700C00000FF91EF91BF91AF919F9147
S1131D308F917F916F915F914F913F912F910F9070
S1131D400BBE0F900FBE0F901F9018958F929F920D
S1131D50AF92BF92CF92DF92EF92FF920F931F93B5
S1131D60CF93DF93A1DE8FE592E06CDB0F2EF7E5D6
S1131D708F2EF6E29F2EF02DF40110821182128232
S1131D80138280E090E0A4E3B2E484839583A68385
S1131D90B78380879187A287B38780E48F9386E88F
S1131DA08F938DEE8F9381E98F9381E48F938AECE7
S1131DB08F9383E68F9381EF8F930F2EF8EBAF2EE3
S1131DC0FEE1BF2EF9E0CF2EF1E4DF2EF02D1FE669
S1131DD0E12E12E1F12E03E810E426EA3BE944EC9B
S1131DE051E46EEA77E485E091E40E94E31AFFEFA0
S1131DF023ED80E3F15020408040E1F700C0000073
S1131E000E94600111E010930220109211201092A0
S1131E101020109304209FEFEBE7F2E99150E0408B
S1131E20F040E1F700C000000E9434190E949B1D9D
S1131E3021DB8DE592E006DBE091112080911020FA
S1131E4020E1E29FF0011124E80FF11DEC5AFA4D54
S1131E50608170E080E090E05DDB8AE592E0F2DA98
S1131E60E0901120F12C8091042090E00E946E1DDE
S1131E70E80EF91E90911020C92FD0E08091042023
S1131E8090E00E94861DEE0CFF1CEE0CFF1CEE0C75
S1131E90FF1CEE0CFF1C8C0F9D1FE701C80FD91F00
S1131EA0CC5ADA4D688170E080E090E033DB87E55E
S1131EB092E0C8DAE09111208091102090E1E99F2E
S1131EC0F0011124E80FF11DE85BFD4D608170E025
S1131ED080E090E01FDB84E592E0B4DAE09011202A
S1131EE0F12C8091042090E00E946E1DE80EF91EF2
S1131EF090911020C92FD0E08091042090E00E949E
S1131F00861DEE0CFF1CEE0CFF1CEE0CFF1CEE0CF1
S1131F10FF1C8C0F9D1FE701C80FD91FC85BDD4D47
S1131F20688170E080E090E0F5DA61E080E09BDABF
S1131F30F40164817581868197810E94EF22EADA37
S1131F4083E592E07FDAF40160857185828593856B
S1131F500E94EF22DFDA82E592E074DAF401608114
S1131F607181828193810E94EF22D4DA109312202E
S1131F708DB79EB708968DBF9EBF84019FEFE7EA99
S1131F80F1E69150E040F040E1F700C0000072DA61
S1131F9080E592E057DAE09111208091102020E151
S1131FA0E29FF0011124E80FF11DEC5AFA4D608113
S1131FB070E080E090E0AEDA8DE492E043DAE09005
S1131FC01120F12C8091042090E00E946E1DE80EF7
S1131FD0F91E90911020C92FD0E08091042090E048
S1131FE00E94861DEE0CFF1CEE0CFF1CEE0CFF1C69
S1131FF0EE0CFF1C8C0F9D1FE701C80FD91FCC5A94
S1132000DA4D688170E080E090E084DA8AE492E05E
S113201019DAE09111208091102090E1E99FF001FC
S11320201124E80FF11DE85BFD4D608170E080E054
S113203090E070DA87E492E005DAE0901120F12C68
S11320408091042090E00E946E1DE80EF91E90918C
S11320501020C92FD0E08091042090E00E94861DBA
S1132060EE0CFF1CEE0CFF1CEE0CFF1CEE0CFF1C18
S11320708C0F9D1FE701C80FD91FC85BDD4D688118
S113208070E080E090E046DA61E080E0ECD9F801AD
S113209064817581868197810E94EF223BDA85E411
S11320A092E0D0D9F80160857185828593850E947C
S11320B0EF2230DA83E492E0C5D9F801C080D18000
S11320C0E280F38020E030E0A901C701B6010E945C
S11320D00624882394F020E030E044EB53E4C70165
S11320E0B6010E940A242AED3FE049EC50E40E9424
S11320F082220E94EF220EDA11C020E030E044EB8D
S113210053E4C701B6010E940A242AED3FE049ECDA
S113211050E40E9482220E94EF22FCD98EE392E0D6
S113212091D96091562670E080E090E0F3D90E9446
S11321300022813069F0823021F49CD984E292E05B
S113214081D98FE99FE00197F1F700C0000016CF15
S113215091D983E392E076D980E090E0DF91CF914A
S11321601F910F91FF90EF90DF90CF90BF90AF90B1
S11321709F908F9008952F923F924F925F926F920B
S11321807F928F929F92AF92BF92CF92DF92EF9203
S1132190FF921F93CF93DF93CDB7DEB72C97CDBFBC
S11321A0DEBF4130510509F09CC1E7E5F6E2208528
S11321B03185428553852D833E834F8358872481FF
S11321C035814681578129873A874B875C872D81E2
S11321D03E814F8158850E9416222B013C0120E04C
S11321E030E0A9010E940624882324F477FA70942D
S11321F077F870940F2EF5EA2F2EF6E03F2EF02D8F
S113220010E429853A854B855C8560915B26709145
S11322105C2680915D2690915E260E94162220E025
S113222030E0A9010E940A2469837A838B839C830A
S11322302D813E814F81588560915F267091602683
S113224080916126909162260E9416224B015C01C6
S113225020E030E0A9010E940624882394F475014B
S11322606401F7FAF094F7F8F09420E030E0A90163
S1132270C701B6010E94062488232CF046015701A9
S113228002C075016401A5019401C301B2010E9459
S113229016222FE832EC45EF5CE30E947B221816ED
S11322A094F010920B3610920C3610920D36109258
S11322B00E361092672610926826109269261092A4
S11322C06A260000B5C22DEC3CEC4CE45EE3C3018D
S11322D0B2010E940A244B015C019B01AC01C701BD
S11322E0B6010E947B2288230CF048C020E030E035
S11322F040EA50E4C701B6010E940A24A3019201F6
S11323000E9482222DEC3CEC4CEC5DE30E941722EF
S11323106B017C0129813A814B815C8160E070E032
S113232080E89FE30E9416229B01AC01C701B6011D
S11323300E940A2460930B3670930C3680930D36FA
S113234090930E3620E030E040E85FE369817A81C3
S11323508B819C810E9417229B01AC01C701B601AD
S11323600E940A24609367267093682680936926E6
S113237090936A260000D1011C9343CFA5019401D8
S1132380C701B6010E94062488230CF44BC026E63C
S113239036E646E65FE3C301B2010E940A249B01CC
S11323A0AC01C701B6010E947B221816DCF1298119
S11323B03A814B815C8160E070E080E89FE30E9499
S11323C016222DEC3CEC4CE85FE30E940A24609357
S11323D00B3670930C3680930D3690930E3620E0B6
S11323E030E040E85FE369817A818B819C810E94BF
S11323F017222DEC3CEC4CEC5DE30E940A2420E017
S113240030E040E85FE30E941722609367267093F0
S113241068268093692690936A260000E6EAF6E02F
S11324201083EFCE26E636E646E65FE3C301B2014B
S11324300E940A249B01AC01C701B6010E94062434
S113244018160CF0DECE20E030E040E251ECC7017B
S1132450B6010E940A24A30192010E9482222DEC5B
S11324603CEC4CEC5DE30E94172220E030E040E2BB
S113247051E40E9417226B017C0129813A814B812E
S11324805C8160E070E080E89FE30E9416229B017B
S1132490AC01C701B6010E940A2460930B36709305
S11324A00C3680930D3690930E3620E030E040E8F1
S11324B05FE369817A818B819C810E9417229B0151
S11324C0AC01C701B6010E940A2460936726709389
S11324D068268093692690936A260000D1011C9394
S11324E090CE452B09F0A4C1E7E5F6E224813581BD
S11324F0468157812D833E834F83588720853185BC
S11325004285538529873A874B875C872D813E8195
S11325104F8158850E9416222B013C0120E030E0B7
S1132520A9010E940624882324F477FA709477F88A
S113253070940F2EF5EA2F2EF6E03F2EF02D10E4C6
S113254029853A854B855C8560915F26709160266C
S113255080916126909162260E94162220E030E04C
S1132560A9010E940A2469837A838B839C832D8129
S11325703E814F81588560915B2670915C268091E5
S11325805D2690915E260E9416224B015C0120E09C
S113259030E0A9010E940624882394F475016401A3
S11325A0F7FAF094F7F8F09420E030E0A901C701BD
S11325B0B6010E94062488232CF04601570102C06C
S11325C075016401A5019401C301B2010E941622A0
S11325D02FE832EC45EF5CE30E947B221816A4F04E
S11325E00E943A0A10920B3610920C3610920D3655
S11325F010920E3610926726109268261092692661
S113260010926A26000014C12DEC3CEC4CE45EE30D
S1132610C301B2010E940A249B01AC01C701B601A7
S11326200E947B2288230CF048C020E030E040EA7E
S113263050E4C701B6010E940A24A30192010E943A
S113264082222DEC3CEC4CEC5DE30E9417226B01E2
S11326507C0129813A814B815C8160E070E080E8F3
S11326609FE30E9416229B01AC01C701B6010E94A0
S11326700A2460930B3670930C3680930D36909336
S11326800E3620E030E040E85FE369817A818B8197
S11326909C810E9417229B01AC01C701B6010E94D4
S11326A00A24609367267093682680936926909322
S11326B06A260000D1011C9343CF2DEC3CEC4CEC7A
S11326C05DE3C301B2010E940A249B01AC01C7016E
S11326D0B6010E94062488230CF44BC026E636E695
S11326E046E65FE3C301B2010E940A249B01AC01E8
S11326F0C701B6010E947B221816DCF129813A81B8
S11327004B815C8160E070E080E89FE30E941622C8
S11327102DEC3CEC4CE85FE30E940A2460930B36FA
S113272070930C3680930D3690930E3620E030E093
S113273040E85FE369817A818B819C810E94172242
S11327402DEC3CEC4CEC5DE30E940A2420E030E0EC
S113275040E85FE30E94172260936726709368261F
S11327608093692690936A260000E6EAF6E01083D7
S1132770E7CE26E636E646E65FE3C301B2010E94F1
S11327800A249B01AC01C701B6010E940624181655
S11327900CF0D6CE20E030E040E251ECC701B601A7
S11327A00E940A24A30192010E9482222DEC3CEC97
S11327B04CEC5DE30E94172220E030E040E251E45B
S11327C00E9417226B017C0129813A814B815C8133
S11327D060E070E080E89FE30E9416229B01AC0158
S11327E0C701B6010E940A2460930B3670930C361D
S11327F080930D3690930E3620E030E040E85FE39E
S113280069817A818B819C810E9417229B01AC0192
S1132810C701B6010E940A24609367267093682654
S11328208093692690936A260000D1011C9388CE78
S11328302C96CDBFDEBFDF91CF911F91FF90EF901B
S1132840DF90CF90BF90AF909F908F907F906F90CC
S11328505F904F903F902F9008954F925F926F92A8
S11328607F928F929F92AF92BF92CF92DF92EF921C
S1132870FF920F931F93CF93DF93CDB7DEB7649787
S1132880CDBFDEBF69837A838B839C8320E030E0F5
S1132890A9010E94062488234CF449805A806B8045
S11328A07C8077FA709477F8709404C049805A80D9
S11328B06B807C802AE939E949E95EE3C301B2010E
S11328C00E947B2288234CF48DEC9CECACECBEE3A0
S11328D089879A87AB87BC8708C080E090E0A0E82E
S11328E0BFE389879A87AB87BC8720E030E0A901E2
S11328F069817A818B819C810E947B228823E4F008
S113290020E030E0A90169817A818B819C810E9459
S1132910062418160CF580E090E0A0E8BFEB898B44
S11329209A8BAB8BBC8B80E090E0A0E8BFE38D87F3
S11329309E87AF87B88B10C080E090E0A0E8BFE32B
S1132940898B9A8BAB8BBC8B80E090E0A0E8BFEBCB
S11329508D879E87AF87B88B809157269091582694
S1132960A0915926B0915A268D839E83AF83B88750
S113297007E516E22D813E814F815885D8016D917E
S11329807D918D919C910E9416226B017C0120E027
S113299030E0A9010E940624882324F4F7FAF09475
S11329A0F7F8F094A7019601C301B2010E94162220
S11329B02AE037ED43EA5CE30E947B22181654F1C7
S11329C00E943A0A87E792E00E94220A10920B368C
S11329D010920C3610920D3610920E361092672615
S11329E0109268261092692610926A26BFE3EDE0E1
S11329F0F3E0B150E040F040E1F700C00000809007
S1132A00572690905826A0905926B0905A2600E058
S1132A1010E021C12DEC3CEC4CE45EE3C301B201B7
S1132A200E940A244B015C01A70196010E9406241E
S1132A3018160CF040C020E030E040EA50E469850C
S1132A407A858B859C850E940A24A70196010E94A1
S1132A500A24A30192010E9482222DEC3CEC4CEC4E
S1132A605DE30E9417226B017C012D853E854F8515
S1132A7058890E940A2460930B3670930C36809315
S1132A800D3690930E36A701960169897A898B8950
S1132A909C890E940A246093672670936826809319
S1132AA0692690936A2600000E943A0A85E792E01C
S1132AB00E94220A5FCFA7019601C501B4010E94BA
S1132AC07B2218160CF455C02DEC3CEC4CE45FE36F
S1132AD069817A818B819C810E940A244B015C016B
S1132AE020E030E0A9010E94062488230CF06CC188
S1132AF0A50194015058C701B6010E947B22181603
S1132B00C4F129853A854B855C856D857E858F85E5
S1132B1098890E940A242DEC3CEC4CEC5DE30E9465
S1132B20172260930B3670930C3680930D36909376
S1132B300E3629853A854B855C8569897A898B8926
S1132B409C890E940A242DEC3CEC4CEC5DE30E9431
S1132B501722609367267093682680936926909362
S1132B606A2600000E943A0A83E792E00E94220A41
S1132B7001CF2DEC3CEC4CE45FE369817A818B81DD
S1132B809C810E940A244B015C0120E030E0A901F1
S1132B900E940624882324F4A5019401505802C0FD
S1132BA0A5019401C701B6010E94062418160CF071
S1132BB0E1CE20E030E040EA50EC69857A858B85EF
S1132BC09C850E940A24A70196010E940A24A3015D
S1132BD092010E9482226B017C0120E030E040EAF5
S1132BE050E469857A858B859C850E940A249B0123
S1132BF0AC01C701B6010E9417222DEC3CEC4CEC51
S1132C005DE30E9417226B017C012D853E854F8573
S1132C1058890E940A2460930B3670930C36809373
S1132C200D3690930E36A701960169897A898B89AE
S1132C309C890E940A246093672670936826809377
S1132C40692690936A2600000E943A0A81E792E07E
S1132C500E94220A8FCEB801012E000C880B990B1A
S1132C600E941D232AED3FE049E450E40E940A2417
S1132C7020E030E040E05FE30E940A242B013C01A5
S1132C809B01AC01C501B4010E9416226B017C01B9
S1132C9020E030E0A9010E940624882324F4C7011F
S1132CA0B601905802C0C701B6012AED3FE049E4DD
S1132CB05FE30E947B22181604F1A5019401C3016D
S1132CC0B2010E9416224B015C010E943A0A8DE671
S1132CD092E00E94220A20E030E04AE754E4C50171
S1132CE0B4010E940A246B017C0120E030E0A901B8
S1132CF00E940624882344F00BC00F5F1F4F04304A
S1132D00110509F0A8CF6CC0F7FAF094F7F8F09425
S1132D10C701B6010E94EA22072E000C880B990B0A
S1132D200E948A0A61E080E00E94330A20E030E0D9
S1132D304AE754E4609157267091582680915926A9
S1132D4090915A260E940A246B017C0120E030E015
S1132D50A9010E940624882344F403C0812C912CE9
S1132D605401F7FAF094F7F8F094C701B6010E9401
S1132D70EA22072E000C880B990B0E948A0A2FE383
S1132D808DE093E0215080409040E1F700C00000C6
S1132D9020E030E0A901C501B4010E940624882383
S1132DA024F4C501B401905802C0C501B4012FE850
S1132DB032EC45E75DE30E94062418160CF050C07F
S1132DC0C501B4014ADD4CC0A7019601C501B40197
S1132DD00E94062488230CF094CEA5019401E2CE2F
S1132DE00E943A0A8DE692E00E94220A60E070E0B6
S1132DF0CB010E948A0A61E080E00E94330A20E04D
S1132E0030E04AE754E46091572670915826809147
S1132E10592690915A260E940A246B017C0120E0D5
S1132E2030E0A9010E94062488230CF497CFC7013F
S1132E30B6010E94EA22072E000C880B990B0E940F
S1132E408A0AAFE3BDE0E3E0A150B040E040E1F71F
S1132E5000C00000812C912C5401C501B401A7CFFE
S1132E606496CDBFDEBFDF91CF911F910F91FF908C
S1132E70EF90DF90CF90BF90AF909F908F907F9016
S1132E806F905F904F900895CF93DF9380E090E030
S1132E90A0E0BFEB80930B3690930C36A0930D36D5
S1132EA0B0930E368093672690936826A093692684
S1132EB0B0936A262FE58FEC93E421508040904034
S1132EC0E1F700C0000010920B3610920C361092FD
S1132ED00D3610920E3610926726109268261092C4
S1132EE0692610926A2680910420823009F46AC00F
S1132EF020F4813009F446C084C0843019F188304C
S1132F0009F07FC06091102024EB629FB00111246E
S1132F10635D7F4F072E000C880B990B0E941D23C5
S1132F2060935F2670936026809361269093622657
S1132F3020E030E04CE252E40E94172241E050E0ED
S1132F401AD95FC06091102084EB689FB0011124EE
S1132F5069577F4F072E000C880B990B0E941D2385
S1132F6060935F2670936026809361269093622617
S1132F7020E030E04CE252E40E94162241E050E0AE
S1132F80FAD83FC06091112094EB699FB0011124DD
S1132F90635D7F4F072E000C880B990B0E941D2345
S1132FA060935B2670935C2680935D2690935E26E7
S1132FB020E030E04CE252E40E94172240E050E06E
S1132FC0DAD81FC06091112024EB629FB001112454
S1132FD069577F4F072E000C880B990B0E941D2305
S1132FE060935B2670935C2680935D2690935E26A7
S1132FF020E030E04CE252E40E94162240E050E02F
S1133000BAD8E09111208091102090E1E99FF0015D
S11330101124E80FF11DEC5AFA4DC081D0E081E093
S113302090E007D58C239D23892B89F46AED7FE0FA
S113303089EC9FEB12DC82E090E0FBD480930420C7
S113304081E090E0809310369093113610C06AEDC1
S11330507FE089EC9FE301DC81E090E0EAD4809397
S1133060042082E090E0809310369093113680E043
S113307090E0A0E0BFEB80930B3690930C36A093C6
S11330800D36B0930E368093672690936826A093EE
S11330906926B0936A262FE58FEC93E42150804093
S11330A09040E1F700C0000010920B3610920C36ED
S11330B010920D3610920E361092672610926826E2
S11330C01092692610926A2680910420823009F4B5
S11330D06BC020F4813009F446C086C0843019F1F5
S11330E0883009F081C06091102024EB629FB00108
S11330F01124635D7F4F072E000C880B990B0E94EF
S11331001D2360935F2670936026809361269093BD
S1133110622620E030E04CE252E40E94172241E0B3
S113312050E029D861C06091102084EB689FB00101
S1133130112469577F4F072E000C880B990B0E94AE
S11331401D2360935F26709360268093612690937D
S1133150622620E030E04CE252E40E94162241E074
S113316050E009D841C06091112094EB699FB001EF
S11331701124635D7F4F072E000C880B990B0E946E
S11331801D2360935B2670935C2680935D26909349
S11331905E2620E030E04CE252E40E94172240E038
S11331A050E00E94BB1020C06091112024EB629F6C
S11331B0B001112469577F4F072E000C880B990B1F
S11331C00E941D2360935B2670935C2680935D268A
S11331D090935E2620E030E04CE252E40E941622F6
S11331E040E050E00E94BB1010920F368091042002
S11331F0823059F118F48130D9F033C0843059F059
S1133200883079F510925726109258261092592634
S113321010925A2626C08AED9FE0A9E4B0E4809378
S1133220572690935826A0935926B0935A2619C02E
S11332308AED9FE0A9ECBFE380935726909358262C
S1133240A0935926B0935A260CC084EE9BECA6E9B1
S1133250B0E48093572690935826A0935926B093B0
S11332605A26DF91CF910895EF92FF920F931F9307
S1133270CF93DF930E946D0C8C010E946D0CEC01C6
S11332800E946D0CA801BE010E94510BEC0189EF54
S113329090E00197F1F700C000000E94080C7C0147
S11332A00E94080C8C010E94080CA701B8010E941E
S11332B0510BE9EFF0E03197F1F700C00000CF3F88
S11332C0FFEFDF0751F0C817D90739F4CD2B29F4E4
S11332D0E4E5F5E28081877F80832FE38DE093E04E
S11332E0215080409040E1F700C0000080E090E071
S11332F0A0E0BFEB80930B3690930C36A0930D3671
S1133300B0930E368093672690936826A09369261F
S1133310B0936A26E7E4F4E223E4E150F04020406D
S1133320E1F700C0000010920B3610920C36109298
S11333300D3610920E36109267261092682610925F
S1133340692610926A2687E494E2E3E4815090406F
S1133350E040E1F700C0000080E090E0ACE2B2E4BD
S113336080935F2690936026A0936126B093622693
S113337041E050E060E070E082E992E40E94BB101A
S11333806AED7FE089EC9FE368DA0E946D0C8C01A2
S11333900E946D0CEC010E946D0CA801BE010E94FC
S11333A0510BEC0189EF90E00197F1F700C00000A8
S11333B00E94080C7C010E94080C8C010E94080CDD
S11333C0A701B8010E94510BE9EFF0E03197F1F742
S11333D000C00000CF3FFFEFDF0751F0C817D90747
S11333E039F4CD2B29F4E4E5F5E280818E7F8083E6
S11333F081E08093482280E090E0A0E0BFEB8093DE
S11334000B3690930C36A0930D36B0930E36809302
S1133410672690936826A0936926B0936A2627E4CA
S113342084E293E4215080409040E1F700C0000022
S113343010920B3610920C3610920D3610920E36F6
S113344010926726109268261092692610926A26B6
S1133450E7E4F4E223E4E150F0402040E1F700C067
S11334600000E7E5F6E280E090E0ACE2B2E48483B9
S11334709583A683B78384EE9BECA6E9B0E48083AE
S11334809183A283B3831092200810922108109292
S1133490200B1092210B40E050E060E070E082E9E4
S11334A092E40E94BB1010920F36DF91CF911F91CE
S11334B00F91FF90EF900895CF93DF9380910F3693
S11334C0833008F47DC0E09111208091102090E1B8
S11334D0E99FF0011124E80FF11DEC5AFA4DC08167
S11334E08C2F8C708C3009F46BC08C2F83708330DC
S11334F009F466C085E090E09CD22C2F30E0822352
S11335009323892BE9F4C0DC809110369091113615
S1133510019759F46AED7FE089EC9FE39ED981E03D
S113352090E087D2809304204BC06AED7FE089EC61
S11335309FEB93D982E090E07CD28093042040C03A
S1133540E09111208091102090E1E99FF001112475
S1133550E80FF11DEC5AFA4DC081D0E081E090E013
S113356068D28C239D23892BB1F46AED7FE089EC2A
S11335709FEB73D982E090E05CD28093042084DCDA
S11335806AED7FE089E490EC68D985E090E051D25F
S11335908093042015C06AED7FE089EC9FE35DD938
S11335A081E090E046D2809304206EDC6AED7FE0F7
S11335B089E490EC52D985E090E03BD280930420DA
S11335C0DF91CF910895AF92BF92CF92DF92EF92A5
S11335D0FF920F931F93CF93DF93CDB7DEB7EDE246
S11335E0F0E26083718382839383248335834683EB
S11335F05783E086F186028713871486158616861C
S11336001786108A118A128A138A148A158A168ACE
S1133610178AE5E1F0E2A082B182C282D3828E856C
S11336209F85A889B98984839583A683B7838A896A
S11336309B89AC89BD8980879187A287B3871486CB
S1133640158616861786108A118A128A138A148A96
S1133650158A168A178ADF91CF911F910F91FF90D7
S1133660EF90DF90CF90BF90AF9008954F925F920C
S11336706F927F928F929F92AF92BF92CF92DF927E
S1133680EF92FF920F931F93CF93DF93CDB7DEB7E3
S11336906097CDBFDEBF4B015C0169017A0120E078
S11336A030E64AEE56E4C701B6010E940624181615
S11336B04CF420E030E040E857E4C701B601B6D648
S11336C06B017C01A7019601C501B401AFD66B0162
S11336D07C01D8011C966D937D938D939C931F97C9
S11336E050962D913D914D915C915397A0D62B010D
S11336F03C01F801608B718B828B938B808091806D
S1133700A280B380A5019401C701B6010E940A24D6
S113371069837A838B839C832AE037ED43EA50E400
S1133720C501B4010E940A246D837E838F83988728
S1133730D80114968D919D910D90BC91A02D8987EF
S11337409A87AB87BC87F8012085318542855385EC
S1133750C501B4010E940A244B015C01D8015496AE
S11337602D913D914D915C915797C701B6015ED65D
S11337709B01AC01C501B4010E940A242AE037ED83
S113378043EA50E4BFD66D877E878F87988B2D815F
S11337903E814F815885C301B2010E940A242985C4
S11337A03A854B855C85AED69B01AC0169817A81F3
S11337B08B819C813CD62D853E854F85588937D693
S11337C04B015C0120E030E048EC52E40E94062406
S11337D018164CF020E030E048EC52ECC501B4017E
S11337E08AD688232CF5A7019601C301B2011ED6FF
S11337F09B01AC01F801608B718B828B938B6D8183
S11338007E818F8198850E940A2429853A854B857B
S11338105C8578D69B01AC0169817A818B819C811E
S113382006D62D853E854F85588901D64B015C010E
S1133830D8015496CD92DD92ED92FC925797C50132
S1133840B4016096CDBFDEBFDF91CF911F910F9180
S1133850FF90EF90DF90CF90BF90AF909F908F90AC
S11338607F906F905F904F9008954F925F926F9208
S11338707F92AF92BF92CF92DF92EF92FF920F931B
S11338801F93CF93DF9300D01F92CDB7DEB76B01A8
S11338907C0129833A834B835C83E0E0F8E000A158
S11338A011A110A211A2E0E0FBE0A0A0B1A010A21F
S11338B011A20093502410935124A0924823B09253
S11338C04923609013207090142088EE681683E0DA
S11338D07806DCF42DEC3CEC4CEC5DE3C701B6015E
S11338E095D7181694F4F301EE0FFF1FEE0FFF1F88
S11338F0E559F94DC082D182E282F382EFEF6E1A6C
S11339007E0A6092132070921420F7FAF094F7F86C
S1133910F09420E030E0A901C701B601ECD5811193
S113392010C084E690E08093280990932909E0E68A
S1133930F6E082E0858384E08583412C512C3201BA
S11339400DC0B80180E090E076D69B01AC0105E1A2
S113395010E2C701B6018ADE2B013C0120E030E011
S1133960A90169817A818B819C81C5D5811110C09F
S113397084E690E080932E0990932F09E0E6F6E028
S113398080E2858380E18583C12CD12C76010FC030
S1133990B50180E090E04FD69B01AC010DE210E24E
S11339A069817A818B819C8161DE6B017C0120E0DD
S11339B030E0A901C301B20129D7882344F0C3012F
S11339C0B20108D6862F63E00E94150D08C0C3011A
S11339D0B2019058FFD5862F62E00E94150D20E0B9
S11339E030E0A901C701B60111D7882344F0C7010B
S11339F0B601F0D5862F62E00E94F50C08C0C7011D
S1133A00B6019058E7D5862F63E00E94F50C249602
S1133A10CDBFDEBFDF91CF911F910F91FF90EF904B
S1133A20DF90CF90BF90AF907F906F905F904F905A
S1133A30089581309105A1F420910420223069F089
S1133A4020F4213009F441C00BC0243019F028308F
S1133A50C9F106C082E090E0089588E090E00895FE
S1133A6082309105B1F420910420223079F018F4C9
S1133A70213049F00EC0243019F0283049F109C032
S1133A8081E090E0089588E090E0089584E090E07B
S1133A9008950597B1F480910420823079F018F4E8
S1133AA0813049F00EC0843019F08830A1F009C08B
S1133AB088E090E0089582E090E0089581E090E04D
S1133AC00895089581E090E0089584E090E00895D9
S1133AD082E090E0089584E090E0089581309105BB
S1133AE049F08230910549F08830910549F00497F6
S1133AF051F0089581E090E008958FEF9FEF0895CD
S1133B0080E090E0089580E090E008959C012150C9
S1133B1031092230310530F08830910531F00497B5
S1133B2039F0089580E090E0089581E090E00895F0
S1133B308FEF9FEF08956F927F928F929F92AF9233
S1133B40BF92CF92DF92EF92FF920F931F93CF9386
S1133B50DF930E94B30B8C010E94B30BEC010E9413
S1133B60B30BA801BE010E94510B982EC92E0E94CE
S1133B705E0B8C010E945E0BEC010E945E0BA8019F
S1133B80BE010E94510B782ED92E89EF90E0019747
S1133B90F1F700C000000E946D0C8C010E946D0CB6
S1133BA0EC010E946D0CA801BE010E94510BA82ECD
S1133BB0B92E89EF90E00197F1F700C000000E9450
S1133BC0080C8C010E94080CEC010E94080CA8014E
S1133BD0BE010E94510B7C0189EF90E00197F1F73F
S1133BE000C00000E114F10409F4E3C0CA2DDB2D88
S1133BF0209709F4E1C080900420A82CB12CC501C1
S1133C006DDF209111208C01020F111DC5017EDF93
S1133C10209110205C01A20EB11CF801E295F295EE
S1133C20F07FFE27E07FFE27EA0DFB1DE85BFD4DDC
S1133C3080818111C4C0872D9D2D8F3F2FEF920766
S1133C4009F4C0C00097B9F481E090E0F2DEF80115
S1133C50E295F295F07FFE27E07FFE27EA0DFB1D3B
S1133C60EC5AFA4D8095909590818923808366243F
S1133C706394712C19C00197A9F481E090E0D9DE16
S1133C80F801E295F295F07FFE27E07FFE27EA0D2A
S1133C90FB1DEC5AFA4D9081892B80836624639432
S1133CA0712C02C0612C712CCF3F8FEFD80709F41F
S1133CB08CC0CE15DF0509F08BC0C130D10599F455
S1133CC0F801E295F295F07FFE27E07FFE27EA0DEA
S1133CD0FB1DEC5AFA4D80948081882280829FEFEC
S1133CE0691A790A13C0229789F4F801E295F295CA
S1133CF0F07FFE27E07FFE27EA0DFB1DEC5AFA4D0C
S1133D008081882A80822FEF621A720A892D9C2D65
S1133D108F3F2FEF920709F45EC00097B9F482E059
S1133D2090E087DEF801E295F295F07FFE27E07FD0
S1133D30FE27EA0DFB1DEC5AFA4D80959095908173
S1133D40892380838FEF681A780A48C0019709F0A5
S1133D5045C082E090E06DDEF801E295F295F07FD7
S1133D60FE27E07FFE27EA0DFB1DEC5AFA4D9081F9
S1133D70892B80839FEF691A790A30C085E090E02F
S1133D8058DE02951295107F1027007F10270A0D28
S1133D901B1DF801EC5AFA4D9081892B808381E038
S1133DA080930220F801E85BFD4D808381E090E080
S1133DB01BC080E090E018C080E090E015C080E077
S1133DC090E012C08FEF9FEF0FC08FEF9FEF0CC0FA
S1133DD08FEF9FEF09C08FEF9FEF06C023E06216BD
S1133DE0710461F28FEF9FEFDF91CF911F910F91DB
S1133DF0FF90EF90DF90CF90BF90AF909F908F9007
S1133E007F906F9008956091502470915124072EF3
S1133E10000C880B990B11D42AE939E941E851E4E3
S1133E20F9D49B01AC0103D32AED3FE049E450E40B
S1133E30F1D4905820E030E040EF52E463C3089599
S1133E406091482370914923072E000C880B990B2D
S1133E50F4D32AE939E941E851E4DCD49B01AC010B
S1133E60E6D22AED3FE049E450E4D4D420E030E047
S1133E7040EF52E447C308954F925F926F927F924E
S1133E808F929F92AF92BF92CF92DF92EF92FF9266
S1133E900F931F93CF93DF93CDB7DEB72897CDBF92
S1133EA0DEBFB1DF6D837E838F839887C9DF69832B
S1133EB07A838B839C832D813E814F815885B6D232
S1133EC020E030E044EB52E41DD36B017C01809090
S1133ED0572690905826A0905926B0905A269B01B8
S1133EE0AC01C501B401A3D22B013C0127E137EB9E
S1133EF041ED58E3C701B60189D4882354F427E17E
S1133F0037EB41ED58EBC701B601F5D218160CF4A6
S1133F103BC0A70196016D817E818F819885F2D285
S1133F2020E030E044E352E482D26D837E838F83C9
S1133F309887C301B201D1D46B017C01C501B401DE
S1133F40CCD49B01AC01C701B60170D22D813E8156
S1133F504F8158855FD469837A838B839C83C301A3
S1133F60B201CDD26B017C01C501B401C8D29B0161
S1133F70AC01C701B6015AD22D813E814F815885CB
S1133F8049D46B017C0119C0C501B401A6D49B01BD
S1133F90AC0169817A818B819C8190583BD46B01FF
S1133FA07C01C501B401ABD229813A814B815C818A
S1133FB031D469837A838B839C8307E516E2F80105
S1133FC04082518262827382A70196016481758165
S1133FD0868197812CD2F8016483758386839783C5
S1133FE029813A814B815C816085718582859385C5
S1133FF01ED2F80160877187828793872896CDBF88
S1134000DEBFDF91CF911F910F91FF90EF90DF9072
S1134010CF90BF90AF909F908F907F906F905F9064
S11340204F90089580910420823079F018F4813003
S113403031F01DC08430A9F0883069F018C0809137
S113404011208F5F809311202BC08091112081500B
S11340508093112025C0809110208F5F80931020C1
S11340600AC08091102081508093102004C08830B1
S113407011F08430A9F46091102084EB689FB001A2
S11340801124072E000C880B990BD7D220E030E0C6
S113409044EB52E4CCD141E050E00C94BB100895C1
S11340A06091112084EB689FB0011124072E000C4D
S11340B0880B990BC2D220E030E044EB52E4B7D134
S11340C040E050E00C94BB100895CF92DF92EF9241
S11340D0FF92813009F089C080910420823009F474
S11340E06BC020F4813009F44EC00AC1843091F1D0
S11340F0883009F005C181E080930420C0905726E0
S1134100D0905826E0905926F0905A262AED3FE0A8
S113411049E450E4C701B601EED188235CF4A70159
S113412096016AED7FE089EC9FEB80D190580E9464
S11341302D14E6C0A70196016AED7FE089EC90E4B6
S113414075D12AED3FE049EC5FE370D190580E94AD
S11341502D14D6C082E080930420209157263091FC
S113416058264091592650915A266AED7FE089E4F9
S113417090E45CD12AED3FE049EC5FE357D19058DD
S11341800E942D14BDC084E0809304202091572602
S1134190309158264091592650915A2664EE7BEC72
S11341A086E990E443D12AED3FE049EC5FE33ED158
S11341B090580E942D14A4C088E08093042020917C
S11341C05726309158264091592650915A266AED27
S11341D07FE089EC9FE32AD12AED3FE049EC5FE3DD
S11341E025D190580E942D148BC0823009F088C0CC
S11341F080910420823009F46BC020F4813009F4EA
S11342004EC07EC0843091F1883009F079C082E0DC
S113421080930420C0905726D0905826E0905926C9
S1134220F0905A262AED3FE049E450E4C701B60174
S113423062D188235CF4A70196016AED7FE089ECE2
S11342409FE3F4D090580E942D145AC0A701960100
S11342506AED7FE089EC90E4E9D02AED3FE049EC97
S11342605FE3E5D090580E942D144AC081E080930A
S11342700420209157263091582640915926509178
S11342805A266AED7FE089E490E4D0D02AED3FE03D
S113429049EC5FE3CCD090580E942D1431C088E0E3
S11342A08093042020915726309158264091592616
S11342B050915A2664EE7BEC86E990E4B7D02AED5F
S11342C03FE049EC5FE3B3D090580E942D1418C02E
S11342D084E0809304202091572630915826409101
S11342E0592650915A266AED7FE089EC9FE39ED0CF
S11342F02AED3FE049EC5FE39AD090580E942D14D8
S1134300C0905726D0905826E0905926F0905A260F
S11343102AED3FE049EC50E4C701B60177D2882387
S11343207CF02AED3FE049EC50E4C701B6017ED0B1
S113433060935726709358268093592690935A2653
S1134340C0905726D0905826E0905926F0905A26CF
S113435020E030E0A901C701B601CDD088237CF468
S11343602AED3FE049EC50E4C701B60160D0609308
S11343705726709358268093592690935A26FF9077
S1134380EF90DF90CF900895809156268630A1F06B
S113439018F4853031F030C08730B9F08830F1F04E
S11343A02BC080910520811105C082E08EDE82E061
S11343B08CDE18C037DE16C080910520811103C041
S11343C082E083DE0FC02EDE0DC0809105208111B6
S11343D003C081E07ADE06C025DE04C023DE81E06E
S11343E080930520A8DB019649F0809105208F5F1A
S11343F08093052080E0089581E0089582E0089587
S113440080910520823049F40E94610980935626E8
S11344101092052080E090E008954ED880910F36E8
S11344208F5F80930F36B0DF90E008955058BB271C
S1134430AA270ED0A0C169D130F06ED120F031F49A
S11344409F3F11F41EF45EC10EF4E095E7FB54C1E6
S1134450E92FB3D180F3BA1762077307840795076E
S113446018F071F49EF5CBC10EF4E0950B2EBA2F23
S1134470A02D0B01B90190010C01CA01A001112466
S1134480FF27591B99F0593F50F4503E68F11A1612
S1134490F040A22F232F342F4427585FF3CF4695A3
S11344A037952795A795F0405395C9F77EF41F16C5
S11344B0BA0B620B730B840BBAF09150A1F0FF0F8F
S11344C0BB1F661F771F881FC2F70EC0BA0F621F7B
S11344D0731F841F48F4879577956795B795F7956B
S11344E09E3F08F0B3CF9395880F08F09927EE0FFD
S11344F0979587950895DCD008F481E0089514D148
S1134500E3954AC10CD037C107D140F0FED030F05A
S113451021F45F3F19F0F0C0511172C1F3C04DD1C5
S113452098F39923C9F35523B1F3951B550BBB2776
S1134530AA2762177307840738F09F5F5F4F220F23
S1134540331F441FAA1FA9F333D00E2E3AF0E0E81C
S113455030D091505040E695001CCAF729D0FE2F68
S113456027D0660F771F881FBB1F261737074807FA
S1134570AB07B0E809F0BB0B802DBF01FF279358B0
S11345805F4F2AF09E3F510568F0B6C039C15F3FC6
S1134590ECF3983EDCF3869577956795B795F79598
S11345A09F5FC9F7880F911D9695879597F9089590
S11345B0E1E0660F771F881FBB1F6217730784072C
S11345C0BA0720F0621B730B840BBA0BEE1F88F73B
S11345D0E095089504D06894B11112C10895F5D0FE
S11345E088F09F5790F0B92F9927B751A0F0D1F0D8
S11345F0660F771F881F991F1AF0BA95C9F712C062
S1134600B13081F0FCD0B1E00895F9C0672F782F64
S11346108827B85F39F0B93FCCF3869577956795CD
S1134620B395D9F73EF490958095709561957F4F39
S11346308F4F9F4F0895E89409C097FB3EF49095DF
S11346408095709561957F4F8F4F9F4F9923A9F067
S1134650F92F96E9BB279395F695879577956795F6
S1134660B795F111F8CFFAF4BB0F11F460FF1BC03A
S11346706F5F7F4F8F4F9F4F16C0882311F096E9CD
S113468011C0772321F09EE8872F762F05C066237B
S113469071F096E8862F70E060E02AF09A95660F34
S11346A0771F881FDAF7880F9695879597F90895ED
S11346B0990F0008550FAA0BE0E8FEEF161617062F
S11346C0E807F907C0F012161306E407F50798F097
S11346D0621B730B840B950B39F40A2661F0232BB0
S11346E0242B252B21F408950A2609F4A140A6952C
S11346F08FEF811D811D089597F99F6780E870E011
S113470060E008959FEF80EC089500240A94161643
S1134710170618060906089500240A9412161306AB
S1134720140605060895EECF50D0E8F3E894E0E0CF
S1134730BB279F57F0F02AED3FE049EC06C0EE0F8F
S1134740BB0F661F771F881F28F0B23A62077307F2
S1134750840728F0B25A620B730B840BE3959A9585
S113476072F7803830F49A95BB0F661F771F881F45
S1134770D2F79048BAC0092E0394000C11F4882390
S113478052F0BB0F40F4BF2B11F460FF04C06F5F05
S11347907F4F8F4F9F4F0895EF93E0FF06C0A2EA2B
S11347A02AED3FE049EC5FEB53DEE5DF0F90039425
S11347B001FC9058ECEFF1E0A4C057FD9058440F71
S11347C0551F59F05F3F71F04795880F97FB991F6C
S11347D061F09F3F79F08795089512161306140629
S11347E0551FF2CF4695F1DF08C0161617061806B6
S11347F0991FF1CF86957105610508940895E89491
S1134800BB2766277727CB0197F9089551DF08F472
S11348108FEF08950BD0AFCF78DF28F07DDF18F04D
S1134820952309F069CF6ECF1124EACFC6DFA0F338
S1134830959FD1F3950F50E0551F629FF001729F31
S1134840BB27F00DB11D639FAA27F00DB11DAA1F50
S1134850649F6627B00DA11D661F829F2227B00D9D
S1134860A11D621F739FB00DA11D621F839FA00D28
S1134870611D221F749F3327A00D611D231F849F78
S1134880600D211D822F762F6A2F11249F575040CF
S11348908AF0E1F088234AF0EE0FFF1FBB1F661F6A
S11348A0771F881F91505040A9F79E3F510570F023
S11348B023CFA6CF5F3FECF3983EDCF38695779544
S11348C06795B795F795E7959F5FC1F7FE2B880F1E
S11348D0911D9695879597F908959F9325DF0F90DD
S11348E007FCEE5F59CF9F3F31F0915020F487953C
S11348F077956795B795880F911D9695879597F944
S113490008959F938F937F936F93FF93EF939B01EE
S1134910AC0180DFEF91FF9105D02F913F914F9132
S11349205F9178CFDF93CF931F930F93FF92EF9212
S1134930DF927B018C01689405C0DA2EEF0176DFEB
S1134940FE01E894A5912591359145915591AEF3D9
S1134950EF017EDDFE019701A801DA9479F7DF907B
S1134960EF90FF900F911F91CF91DF910895A1E2F5
S11349701A2EAA1BBB1BFD010DC0AA1FBB1FEE1FD5
S1134980FF1FA217B307E407F50720F0A21BB30B20
S1134990E40BF50B661F771F881F991F1A9469F79C
S11349A060957095809590959B01AC01BD01CF01F8
S11349B00895A29FB001B39FC001A39F700D811DF4
S11349C01124911DB29F700D811D1124911D089514
S10749D0F894FFCF85
S10949D4010101080802C4
S9030000FC
