:1000000017C100000C94370A34C1000032C100004F
:1000100030C100002EC100002CC100002AC1000028
:1000200028C1000026C1000024C1000022C1000038
:1000300020C100001EC100001CC100001AC1000048
:1000400018C1000016C1000014C1000012C1000058
:100050000C9405090EC100000CC100000AC100008B
:1000600008C1000006C1000004C1000002C1000078
:1000700000C10000FEC00000FCC00000FAC000008B
:10008000F8C00000F6C00000F4C00000F2C000009C
:10009000F0C00000EEC00000ECC00000EDC60000A3
:1000A00001C7000015C7000029C70000E2C000001A
:1000B000E0C00000DEC00000DCC00000DAC00000CC
:1000C000D8C00000D6C00000D4C00000D2C00000DC
:1000D000D0C00000CEC00000CCC00000CAC00000EC
:1000E000C8C00000C6C00000C4C00000C2C00000FC
:1000F000C0C00000BEC00000BCC00000BAC000000C
:10010000B8C00000B6C00000B4C00000B2C000001B
:1001100049C70000AEC00000ACC00000AAC000008B
:10012000A8C00000A6C00000A4C00000A2C000003B
:10013000A0C000009EC000009CC000009AC000004B
:1001400098C0000096C0000094C000003AC70000AC
:1001500090C000008EC000008CC000008AC000006B
:1001600088C0000086C0000084C0000082C000007B
:1001700080C000007EC000007CC000007AC000008B
:1001800078C0000076C0000074C0000072C000009B
:1001900070C000006EC000006CC000006AC00000AB
:1001A000C3C60000CBC6000064C0000062C00000EF
:1001B00060C000005EC000005CC000005AC00000CB
:1001C00058C0000056C0000054C0000052C00000DB
:1001D00050C000004EC000004CC000004AC00000EB
:1001E00048C0000046C0000044C0000042C00000FB
:1001F00040C000003EC000003CC0000005A84CCD3F
:10020000B2D44EB93836A9020C50B9918688083C50
:10021000A6AAAA2ABE000000803F5765776E20522A
:10022000432033324D487A00417761726961210081
:1002300011241FBECFEFCDBFDFE3DEBF00E00CBF58
:1002400010E2A0E0B0E2E6E9FFE200E00BBF02C08E
:1002500007900D92A836B107D9F72EE2A8E6B0E2D2
:1002600001C01D92A73DB207E1F70E946F0A0C94EE
:10027000C917C6CE88E08093410684E08093420689
:100280001092A7088FEC8093A6081092A308E0EACA
:10029000F8E083E0858384818861848308951092E7
:1002A000BB261092BC261092CB262FEF83ED90E355
:1002B000215080409040E1F700C0000088E290E0CB
:1002C0000E94560FEFEFF7EA21E6E150F0402040A0
:1002D000E1F700C00000C12CD12C7601C6EAD6E0BF
:1002E0006894882486F86894992495F80F2EF3EA88
:1002F000AF2EF6E2BF2EF02D05EA16E08091C9265A
:100300009091CA26C297B4F59882F801808284EB56
:1003100090E00E94560FF501208131814281538186
:10032000C701B6010E94D7112AED3FE049EC5FE317
:100330000E94D8110E94BA0F2AED3FE049EC5FE31A
:10034000C701B6010E94D8116B017C012AED3FE084
:1003500049E450E40E94191418160CF04FC02AED1D
:100360003FE049EC50E4C701B6010E94D7116B0190
:100370007C0144C02091B9263091BA268091A126F3
:100380009091A226820F931F883E934044F4888266
:10039000F801908284EB90E00E94560F2FC0888273
:1003A0009882F5012081318142815381C701B601D4
:1003B0000E94D7112AED3FE049EC5FE30E94D7117C
:1003C0000E94BA0F2AED3FE049EC5FE3C701B60196
:1003D0000E94D7116B017C012AED3FE049E450EC0B
:1003E0000E943C12882354F42AED3FE049EC50E48B
:1003F000C701B6010E94D8116B017C018FE39FE118
:100400000197F1F700C0000079CFE0EAF4E088E35B
:10041000818391E09283948393E29583E0E8F6E010
:10042000808B818B089596ED9093A604E0EAF4E02A
:10043000948196FFFDCF8093A704E0EAF4E08481E5
:1004400086FFFDCF6093A704E0EAF4E0848186FF95
:10045000FDCF83E08093A30481E0089560E081E212
:10046000E2DF60E882E2DFDF60EA83E2DCDF6FE1A7
:1004700084E3D9DF68E585E3D6DF61E088E3D3DF95
:1004800068E080E3D0DF6FEF80E2CDCF089596ED96
:100490009093A604E0EAF4E0948196FFFDCF809368
:1004A000A704E0EAF4E0848186FFFDCF87ED809326
:1004B000A604E0EAF4E084818823ECF7E0EAF4E0C3
:1004C00083818460838387810895AF92BF92CF92A6
:1004D000DF92EF92FF920F931F938AE2D8DFA82E4C
:1004E0008BE2D5DF282F30E040E050E060E070E0A4
:1004F00080E090E008E00E94EC14B12CC12CD12CDB
:10050000E12CF12C00E010E00E9405150E94DC12A5
:100510006093B5267093B6268093B7269093B8263D
:100520001F910F91FF90EF90DF90CF90BF90AF9011
:100530000895CBDF6091B5267091B6268091B726DD
:100540009091B826089580FF04C090E190934506ED
:1005500003C090E19093460681FF04C090E290931F
:10056000450603C090E29093460682FF04C090E4E3
:100570009093450603C090E49093460683FF04C021
:1005800080E880934506089580E8809346060895A4
:100590000F931F93CF93DF93082FC0E4D6E018E0AA
:1005A0001D8382958F70CFDF1E8300001D83802FF7
:1005B000CADF1E838FE891E00197F1F700C00000C9
:1005C000DF91CF911F910F91089594E0909346068B
:1005D000DFCF089594E090934506DACF0895CF9346
:1005E000DF93EC012196FC018491882331F0F2DF46
:1005F000FE01849121968111FACFDF91CF91089568
:1006000081E0E3DF8FE79EE30197F1F700C0000090
:100610000895AAECB1E092E09C93E82FF0E0849179
:100620001C92089582E080935000E0E5F0E0818123
:1006300081FFFDCF88ED84BF81E080934000E0DF43
:100640008AE192E0CCDF2FEF87EA91E621508040EB
:100650009040E1F700C00000D3CF08950F931F939F
:10066000CF93DF93DFDFC0E4D2E014E01C8300E12E
:10067000098380E2CEDF8C8781E2CBDF8D870A831E
:100680001B8281E0888397E09093A200E0E2F6E08D
:1006900032E0328388A319A28E8393E09AA38283E7
:1006A00088A728E029A73E839AA7128388AB09ABC5
:1006B0001E839AAB228388AF88E189AF2E839AAFDD
:1006C0007894DF91CF911F910F9108958F929F920F
:1006D000AF92BF92DF92EF92FF920F931F93CF934F
:1006E000DF93CDB7DEB7A897CDBFDEBFBE016F5F8A
:1006F0007F4FAE014B5E5F4F7A019A015B01E0E4F0
:10070000F2E00F2EF0E88F2EF6E09F2EF02D689489
:10071000DD24D4F81AE61A95F1F700C080AD8068A0
:1007200080AF85ED8A95F1F7000080919F2590912B
:10073000A0258133A5E79A0720F4D9018D939C93D6
:1007400003C0D9011D921C928FE891E00197F1F747
:1007500000C00000D4011596DC92B5E3BA95F1F71C
:10076000000080AD806880AF15E31A95F1F70000B6
:10077000D4011696DC92B5EDBA95F1F700008091A0
:100780009F259091A025813315E7910720F4D5018D
:100790008D939C9303C0D5011D921C92B2E0AB0EC9
:1007A000B11C2E5F3F4FAE14BF0409F0B3CF8E01D2
:1007B000075D1F4FE0E0F0E020E030E0DA018D91CE
:1007C0009D91AD01E80FF91FDB018D919D91BD0158
:1007D000280F391F4017510789F7ADECBCEC0E9478
:1007E000DD14AC0156954795569547955695479516
:1007F0009F010E94DD14969587959695879596950D
:1008000087959A01281B390BC901813335E7930776
:1008100010F080E090E0A896CDBFDEBFDF91CF91D1
:100820001F910F91FF90EF90DF90BF90AF909F903E
:100830008F9008958F929F92AF92BF92DF92EF9226
:10084000FF920F931F93CF93DF93CDB7DEB7A89797
:10085000CDBFDEBFBE016F5F7F4FAE014B5E5F4F0E
:100860007A019A015B01E0E4F2E00F2EF0E88F2EAE
:10087000F6E09F2EF02D6894DD24D7F81AE61A953D
:10088000F1F700C080A1806880A385ED8A95F1F71B
:10089000000080919B2490919C248133A5E79A07C6
:1008A00020F4D9018D939C9303C0D9011D921C9211
:1008B0008FE891E00197F1F700C00000D401159690
:1008C000DC92B5E3BA95F1F7000080A1806880A3BF
:1008D00015E31A95F1F70000D4011696DC92B5EDF8
:1008E000BA95F1F7000080919B2490919C2481336C
:1008F00015E7910720F4D5018D939C9303C0D50192
:100900001D921C92B2E0AB0EB11C2E5F3F4FAE1495
:10091000BF0409F0B3CF8E01075D1F4FE0E0F0E0A8
:1009200020E030E0DA018D919D91AD01E80FF91FD3
:10093000DB018D919D91BD01280F391F4017510793
:1009400089F7ADECBCEC0E94DD14AC0156954795DF
:1009500056954795569547959F010E94DD149695AB
:10096000879596958795969587959A01281B390BBB
:10097000C901813335E7930710F080E090E0A89635
:10098000CDBFDEBFDF91CF911F910F91FF90EF9010
:10099000DF90BF90AF909F908F9008956F927F925D
:1009A0008F929F92BF92CF92DF92EF92FF920F931E
:1009B0001F93CF93DF93CDB7DEB7A897CDBFDEBF30
:1009C0009E012F5F3F4F4901AE014B5E5F4F6A01B1
:1009D0009A013401E0E4F2E00F2EF0E8EF2EF6E0A9
:1009E000FF2EF02D6894BB24B6F86AE66A95F1F7FD
:1009F00000C080A5806880A785ED8A95F1F700008A
:100A000080919322909194228133A5E79A0720F454
:100A1000D9018D939C9303C0D9011D921C928FE83C
:100A200091E00197F1F700C00000D7011596BC9244
:100A3000B5E3BA95F1F7000080A5806880A765E36B
:100A40006A95F1F70000D7011696BC92B5EDBA95FC
:100A5000F1F700008091932290919422813365E711
:100A6000960720F4D3018D939C9303C0D3011D926C
:100A70001C92B2E06B0E711C2E5F3F4F6C147D0414
:100A800009F0B3CFFE01B99620E030E0DA018D9194
:100A90009D91AD01080F191FD4018D919D914D01BC
:100AA000280F391F4E175F0789F7ADECBCEC0E9489
:100AB000DD14AC0156954795569547955695479543
:100AC00098010E94DD1496958795929582958F7076
:100AD00089279F7089279A01281B390BC901813307
:100AE00035E7930710F080E090E0A896CDBFDEBF19
:100AF000DF91CF911F910F91FF90EF90DF90CF90FA
:100B0000BF909F908F907F906F9008956F927F928B
:100B10008F929F92BF92CF92DF92EF92FF920F93AC
:100B20001F93CF93DF93CDB7DEB7A897CDBFDEBFBE
:100B30009E012F5F3F4F4901AE014B5E5F4F6A013F
:100B40009A013401E0E4F2E00F2EF0E8EF2EF6E037
:100B5000FF2EF02D6894BB24B5F86AE66A95F1F78C
:100B600000C080A9806880AB85ED8A95F1F7000010
:100B700080919823909199238133A5E79A0720F4D7
:100B8000D9018D939C9303C0D9011D921C928FE8CB
:100B900091E00197F1F700C00000D7011596BC92D3
:100BA000B5E3BA95F1F7000080A9806880AB65E3F2
:100BB0006A95F1F70000D7011696BC92B5EDBA958B
:100BC000F1F700008091982390919923813365E794
:100BD000960720F4D3018D939C9303C0D3011D92FB
:100BE0001C92B2E06B0E711C2E5F3F4F6C147D04A3
:100BF00009F0B3CFFE01B99620E030E0DA018D9123
:100C00009D91AD01080F191FD4018D919D914D014A
:100C1000280F391F4E175F0789F7ADECBCEC0E9417
:100C2000DD14AC01569547955695479556954795D1
:100C300098010E94DD1496958795929582958F7004
:100C400089279F7089279A01281B390BC901813395
:100C500035E7930710F080E090E0A896CDBFDEBFA7
:100C6000DF91CF911F910F91FF90EF90DF90CF9088
:100C7000BF909F908F907F906F900895E0E6F6E090
:100C800088E3818380E2868380E18683E0E0F9E087
:100C900083E9818384EF91E086A397A316A617A624
:100CA00081E080830895E0E6F6E087E0818382E0DA
:100CB000868384E08683109228091092290908957A
:100CC000082E000C990B9C01220F331F220F331F9B
:100CD000820F931F80932E0990932F09611107C0F3
:100CE000E0E6F6E080E2868380E186830895613065
:100CF00039F4E0E6F6E080E2858380E185830895BB
:100D0000623039F4E0E6F6E080E2868380E18583B4
:100D10000895E0E6F6E080E2858380E18683089529
:100D2000082E000C990B9C01220F331F220F331F3A
:100D3000820F931F8093280990932909611107C09E
:100D4000E0E6F6E082E0868384E086830895613001
:100D500039F4E0E6F6E082E0858384E08583089557
:100D6000623039F4E0E6F6E082E0868384E0858351
:100D70000895E0E6F6E082E0858384E086830895C6
:100D800080E88093A506E0E8F3E087E1828383E9C9
:100D900080838DE2858381E084830895EF92FF92C2
:100DA0000F931F93CF93DF93C0EAD6E08CE08A8342
:100DB00084E08A8728E02B878AE18A8B8B8B85E009
:100DC0008987E0E4F6E08BE1808B818BE0E8F1E05D
:100DD00090E690839FE0908700E018E0D8012C9384
:100DE00028E613962C93888B898B88E782839287D9
:100DF0000F2EE12CFBE0FF2EF02D8AE0F70180831F
:100E00008AE683833BDF4FDFE0E8F6E080EF818313
:100E1000868380EE89838E8321DCB2DF2BDAF5DADC
:100E20001DDBA0E4B9E081E016968C93169711962D
:100E30001C9211978CE093E096968D939C939797D4
:100E4000E0E4F8E083E0868311828CE990E086A3F9
:100E500097A387E08C9380837894D80190961D9215
:100E60001C929197F70110A211A2DF91CF911F91CF
:100E70000F91FF90EF9008951F920F920FB60F926F
:100E800011248F939F9380915002909151028093EF
:100E90009B2490939C249F918F910F900FBE0F9055
:100EA0001F9018951F920F920FB60F9211248F93D7
:100EB0009F9380915202909153028093932290933A
:100EC00094229F918F910F900FBE0F901F901895B5
:100ED0001F920F920FB60F9211248F939F938091C0
:100EE00054029091550280939823909399239F9157
:100EF0008F910F900FBE0F901F9018951F920F9219
:100F00000FB60F9211248F939F9380915602909168
:100F1000570280939F259093A0259F918F910F90CA
:100F20000FBE0F901F9018951F920F920FB60F9241
:100F300011240F900FBE0F901F9018951F920F92C3
:100F40000FB60F9211240BB60F922F933F934F932E
:100F50005F936F937F938F939F93AF93BF93EF9321
:100F6000FF932FEF83ED90E3215080409040E1F715
:100F700000C000006AED7FE089EC9FE3FBD7FF91A2
:100F8000EF91BF91AF919F918F917F916F915F9101
:100F90004F913F912F910F900BBE0F900FBE0F906E
:100FA0001F9018951F920F920FB60F9211248F93D6
:100FB00080E88093A7068F910F900FBE0F901F902F
:100FC00018951F920F920FB60F9211240BB60F9225
:100FD0002F933F934F935F936F937F938F939F9341
:100FE000AF93BF93EF93FF9391DD8093C7269093C8
:100FF000C826D4DC8093C9269093CA2667DB8093E9
:10100000A1269093A22616DC8093B9269093BA2647
:1010100043EA5EE2ABE9BEE20DC02081318122836A
:1010200033833A96E617F707C1F7425051094A173A
:101030005B0729F0BA01685D7F4FFA01EECF20917E
:10104000C7263091C826EDE9FEE220833183409126
:10105000C9265091CA26428753876091A126709174
:10106000A226648B758B868F978F109282201092A8
:1010700083202536310534F14536510584F0CA0107
:10108000821B930B8093C52E9093C62E20936A20CB
:1010900030936B20409368205093692035C04436CC
:1010A000510534F5860F971F803293400CF58091DF
:1010B0006A2090916B20821B930B8093C52E909396
:1010C000C62E22C0243631059CF44536510584F0E5
:1010D000860F971F803293405CF480916820909136
:1010E0006920481B590B4093C52E5093C62E0CC047
:1010F0001092C52E1092C62E8091BB269091BC26D0
:10110000019709F06FC066C08091BB269091BC2604
:10111000019709F067C08091C52E9091C62E1816D0
:1011200019065CF526EF3FEF209320203093212015
:10113000DCD19C0180918620909187206EE170E047
:101140000E94CA14CB01829FB001839F700D929FB1
:10115000700D1124072E000C880B990B0E94E212CF
:1011600026E636E646E054E40E941D140E94AB12C7
:10117000609384207093852035C099235CF52AE024
:1011800030E02093202030932120AFD19C0180912A
:101190008620909187206EE170E00E94CA14CB01F6
:1011A000829FB001839F700D929F700D1124072EB6
:1011B000000C880B990B0E94E21226E636E646E008
:1011C00054E40E941D140E94AB126093842070931B
:1011D000852008C010922020109221201092842097
:1011E00010928520FF91EF91BF91AF919F918F91C8
:1011F0007F916F915F914F913F912F910F900BBE17
:101200000F900FBE0F901F9018951F920F920FB660
:101210000F9211240BB60F922F923F924F925F9232
:101220006F927F928F929F92AF92BF92CF92DF92F6
:10123000EF92FF920F931F932F933F934F935F93E0
:101240006F937F938F939F93AF93BF93EF93FF938E
:10125000CF93DF93CDB7DEB76297CDBFDEBF20E07F
:1012600038E0F90140A151A160E070E000E01BE02E
:10127000F80180A191A1A0E0B0E08093BF269093F7
:10128000C026A093C126B093C226F90110A211A2D4
:10129000F80110A211A2002711279801041B150BB9
:1012A000260B370B0133F5E71F07210531054CF4F9
:1012B0000093C3261093C4262093C5263093C626D8
:1012C00012C000E010E02FEF3FEF68017901C41A6F
:1012D000D50AE60AF70AC092C326D092C426E09245
:1012E000C526F092C626813325E79207A105B105F0
:1012F0004CF011978093BF269093C026A093C126EF
:10130000B093C2265090C3264090C4263090C52684
:101310002090C626C52CD42CE091BF26F091C02683
:101320008091C126898B9091C2269A8BAE2FBF2FB8
:1013300036016A1A7B0A60926E2070926F20CA0E84
:10134000DB1EC0926C20D0926D208090082090907F
:101350000920A0900A20B0900B20E0900C20F09083
:101360000D2000910E2010910F202091102030911F
:1013700011204091122050911320609114207091FF
:1013800015208091162090911720AA89AF93A989E2
:10139000AF93FF93EF932F923F924F925F927F9282
:1013A0006F92E0910320EF93E0910220EF93E091A0
:1013B0000120EF93E0910020EF93E0910720EF935D
:1013C000E0910620EF93E0910520EF93E091042057
:1013D000EF93E0D44091BF265091C0266091C32680
:1013E0007091C426EDB7FEB77097EDBFFEBFADB7E5
:1013F000BEB7119680E1E3EAF6E201900D928A957C
:10140000E1F7CE0101965DD680E1FE013196A3EAB7
:10141000B6E201900D928A95E1F7CDBFDEBF6296EC
:10142000CDBFDEBFDF91CF91FF91EF91BF91AF9123
:101430009F918F917F916F915F914F913F912F91EC
:101440001F910F91FF90EF90DF90CF90BF90AF90E2
:101450009F908F907F906F905F904F903F902F90D4
:101460000F900BBE0F900FBE0F901F9018951F92FC
:101470000F920FB60F9211240BB60F922F933F933A
:101480004F935F936F937F938F939F93AF93BF938C
:10149000EF93FF93E0E5F0E0838182608383B0D82F
:1014A00088E292E09CD82FEF87EA91E621508040B5
:1014B0009040E1F700C00000FF91EF91BF91AF9124
:1014C0009F918F917F916F915F914F913F912F915C
:1014D0000F900BBE0F900FBE0F901F901895CCD59C
:1014E0000E944F0180E090E00895CF93DF93CDB745
:1014F000DEB7C454D109CDBFDEBF24E4E4E2F0E29C
:10150000DE01119601900D922A95E1F72BA13CA1E5
:101510008217930754F0FE01B59621E030E0419127
:101520005191841795075CF402C020E030E0220F4F
:10153000331FFE01E20FF31F8181928107C02F5FED
:101540003F4F2031310559F780E090E0CC5BDF4F11
:10155000CDBFDEBFDF91CF9108954F925F926F9222
:101560007F928F929F92AF92BF92CF92DF92EF9233
:10157000FF92CF93DF9300D01F92CDB7DEB76B0100
:101580007C0149015A0180912220909123209923C6
:101590000CF4ACC08091802090918120892B09F0BF
:1015A00053C0209186203091872080911E209091F9
:1015B0001F20A901481B590B280F391F429FC0014A
:1015C000439F900D529F900D112460911C207091AB
:1015D0001D20660F771F660F771F0E94CA14072E03
:1015E000000C880B990BEED769837A838B839C83DD
:1015F00060918E2070918F20072E000C880B990B24
:10160000E1D72B013C0120E030E0A9010E94191430
:10161000882324F477FA709477F87094A3019201E8
:1016200069817A818B819C810E941914882364F0DE
:1016300082E090E0809380209093812085E090E08C
:101640008093222090932320809186209091872060
:1016500020912220309123208217930704F58530B2
:1016600091053CF485E090E080938620909387205C
:101670000AC040911C2050911D20840F951F80931B
:10168000862090938720809186209091872028172C
:101690003907D4F4209386203093872015C028176B
:1016A000390794F440911C2050911D20841B950B08
:1016B000821793072CF0809386209093872004C094
:1016C000209386203093872080918E2090918F20C8
:1016D000181619060CF4B5C01092862010928720B7
:1016E0008091CB268E7F8093CB26ABC080918020CB
:1016F00090918120892B09F053C020918620309150
:10170000872080911E2090911F20A901481B590B12
:10171000280F391F429FC001439F900D529F900D8B
:10172000112460911C2070911D20660F771F660F99
:10173000771F0E94CA14072E000C880B990B42D702
:1017400069837A838B839C8360918E2070918F2034
:10175000072E000C880B990B35D72B013C0120E09C
:1017600030E0A9010E941914882324F477FA7094B8
:1017700077F87094A301920169817A818B819C81B1
:101780000E941914882364F082E090E08093802006
:10179000909381208BEF9FEF8093222090932320C2
:1017A00080918620909187202091222030912320C3
:1017B000281739070CF58C3F4FEF94073CF08BEF5F
:1017C0009FEF80938620909387200AC040911C2031
:1017D00050911D20841B950B809386209093872029
:1017E000809186209091872082179307D4F42093CC
:1017F00086203093872015C08217930794F4409178
:101800001C2050911D20840F951F281739072CF09C
:10181000809386209093872004C020938620309365
:10182000872080918E2090918F20181619064CF4F5
:1018300010928620109287208091CB268E7F8093F5
:10184000CB2680918E2090918F20881999098C1930
:101850009D0980938E2090938F202496CDBFDEBF6C
:10186000DF91CF91FF90EF90DF90CF90BF90AF903E
:101870009F908F907F906F905F904F9008954F92C0
:101880005F926F927F928F929F92AF92BF92CF9210
:10189000DF92EF92FF92CF93DF9300D01F92CDB7EC
:1018A000DEB74B015C0169017A01809120209091A3
:1018B000212099230CF49CC0809182209091832058
:1018C000892B09F054C080919020909191209C0127
:1018D000255031090596289FB001299F700D389F2A
:1018E000700D1124072E000C880B990B6BD62B0161
:1018F0003C01609118207091192080911A209091DC
:101900001B209B01AC0154D59B01AC01C301B2016A
:10191000BAD569837A838B839C836091842070918C
:101920008520072E000C880B990B4CD62B013C010F
:1019300020E030E0A9017DD7882324F477FA709461
:1019400077F87094A301920169817A818B819C81DF
:1019500070D7882364F082E090E080938220909397
:10196000832085E090E08093202090932120809137
:101970009020909191202091202030912120821759
:1019800093077CF440911C2050911D20840F951FDB
:10199000281739070CF0D1C0209390203093912064
:1019A00015C02817390794F440911C2050911D2030
:1019B000841B950B821793072CF0809390209093B3
:1019C000912004C020939020309391208091842016
:1019D00090918520181619060CF4A2C01092902040
:1019E000109291208091CB268D7F8093CB2698C03A
:1019F0008091822090918320892B09F054C080919E
:101A00009020909191209C01255031090596289FA6
:101A1000B001299F700D389F700D1124072E000C06
:101A2000880B990BCFD52B013C0160911820709148
:101A3000192080911A2090911B209B01AC01B8D4F1
:101A40009B01AC01C301B2011ED569837A838B83EC
:101A50009C836091842070918520072E000C880B58
:101A6000990BB0D52B013C0120E030E0A901E1D673
:101A7000882324F477FA709477F87094A301920184
:101A800069817A818B819C81D4D6882364F082E03D
:101A900090E080938220909383208BEF9FEF809340
:101AA000202090932120809190209091912020914E
:101AB0002020309121202817390774F440911C20F0
:101AC00050911D20841B950B82179307DCF5209302
:101AD00090203093912015C08217930794F4409181
:101AE0001C2050911D20840F951F281739072CF0BA
:101AF000809390209093912004C020939020309365
:101B00009120809184209091852099234CF010920F
:101B10009020109291208091CB268D7F8093CB26B0
:101B2000C818D9088091842090918520C80ED91EAC
:101B3000C0928420D09285200AC0809390209093F8
:101B4000912044CF8093902090939120DACF2496D7
:101B5000CDBFDEBFDF91CF91FF90EF90DF90CF90B0
:101B6000BF90AF909F908F907F906F905F904F90BD
:101B700008954F925F926F927F928F929F92AF9251
:101B8000BF92CF92DF92EF92FF920F931F93CF936A
:101B9000DF93CDB7DEB76497CDBFDEBF6D837E83A5
:101BA0008F839887298B3A8B4B8B5C8BE986FA86DF
:101BB0000B871C8760918620709187206C197D09A6
:101BC0006093B3267093B426072E000C880B990BF4
:101BD000F9D46B017C0120917420309175204091E3
:101BE000762050917720E4D369837A838B839C831A
:101BF0006093742070937520809376209093772063
:101C0000609190207091912088A999A9681B790B07
:101C100060938C2070938D20072E000C880B990BFD
:101C2000D1D42B013C012091702030917120409142
:101C3000722050917320BCD36D877E878F87988BDD
:101C40006093702070937120809372209093732022
:101C500020917C2030917D2040917E2050917F20EA
:101C6000C701B601A4D329853A854B855C85E5D5A6
:101C7000A70196019DD369877A878B879C872989DD
:101C80003A894B895C8960E070E080E89FE3FBD390
:101C900029813A814B815C81D0D59B01AC0169855A
:101CA0007A858B859C8584D32D813E814F81588593
:101CB000C4D569837A838B839C832091782030916B
:101CC000792040917A2050917B20C301B2016FD3DB
:101CD0002CA53DA54EA55FA5B0D5A301920168D363
:101CE0006D837E838F83988728A539A54AA55BA538
:101CF00060E070E080E89FE3C6D32D853E854F8588
:101D000058899BD59B01AC016D817E818F8198851F
:101D10004FD3A501940191D54B015C019B01AC010E
:101D200069817A818B819C8143D315D460938A2009
:101D300070938B20A501940169817A818B819C81AC
:101D400036D309D46093882070938920C0927C2078
:101D5000D0927D20E0927E20F0927F2040927820E9
:101D60005092792060927A2070927B206496CDBF49
:101D7000DEBFDF91CF911F910F91FF90EF90DF9029
:101D8000CF90BF90AF909F908F907F906F905F901B
:101D90004F9008952F923F924F925F926F927F9251
:101DA0008F929F92AF92BF92CF92DF92EF92FF926B
:101DB0000F931F93CF93DF93CDB7DEB72C97CDBF93
:101DC000DEBF69837A838B839C832D833E834F831D
:101DD0005887E986FA860B871C8716011AA10BA182
:101DE000FCA0EDA0DEA0CFA078A469A45AA44BA4C7
:101DF00028A939A94AA95BA96CA57DA58EA59FA58F
:101E00003EDD28A939A94AA95BA96CA57DA58EA5A7
:101E10009FA5A3DB4F925F926F927F92CF92DF924A
:101E2000EF92FF920F931F936101E984FA840B856F
:101E30001C852D813E814F81588569817A818B81F6
:101E40009C8197DE80918A2090918B20CDBFDEBF50
:101E5000992324F062E00E94900604C063E081951B
:101E60000E9490068091882090918920992324F0E7
:101E700063E00E94600604C062E081950E946006F3
:101E80002C96CDBFDEBFDF91CF911F910F91FF90B8
:101E9000EF90DF90CF90BF90AF909F908F907F900A
:101EA0006F905F904F903F902F900895BC0180916C
:101EB000CB2681608093CB2681E090E08093BB2687
:101EC0009093BC26072E000C880B990B7BD326E839
:101ED00032EE42E451E4B1D43ED360938E2070934D
:101EE0008F20109284201092852010922020109232
:101EF00021208AE090E0809322209093232010926A
:101F0000B3261092B426109274201092752010926D
:101F100076201092772010928C2010928D201092B3
:101F200070201092712010927220109273201092E3
:101F30007C2010927D2010927E2010927F201092A3
:101F400078201092792010927A2010927B201092A3
:101F500080201092812010928220109283208FE3A3
:101F60009FE10197F1F700C000008091CB2681111D
:101F7000F6CF0895CF92DF92EF92FF926B017C0132
:101F80001092BB261092BC2626E437E049E054E4C8
:101F900054D4E1D260938420709385208091CB2625
:101FA00082608093CB2620E030E0A901C701B60112
:101FB00040D418163CF48AE090E08093202090935F
:101FC000212013C020E030E0A901C701B60154D29E
:101FD000811105C0109220201092212006C086EFAA
:101FE0009FEF809320209093212010922220109226
:101FF000232010928E2010928F201092B3261092E0
:10200000B4261092742010927520109276201092AF
:10201000772010928C2010928D20109270201092B8
:102020007120109272201092732010927C201092D6
:102030007D2010927E2010927F20109278201092A6
:10204000792010927A2010927B2010928220109298
:10205000832010928020109281208FE39FE10197CE
:10206000F1F700C000008091CB268111F6CFFF90E0
:10207000EF90DF90CF9008950E94CE06E3EAF6E25B
:1020800010821182128213821482158216821782A4
:102090001086118612861386148615861686178674
:1020A0001092C3261092C4261092C5261092C626FE
:1020B0001092BF261092C0261092C1261092C226FE
:1020C00008954F925F926F927F928F929F92AF92FC
:1020D000BF92CF92DF92EF92FF920F931F93CF9315
:1020E000DF93CDB7DEB76497CDBFDEBF8C017A0139
:1020F00088A499A4AAA4BBA48CA59DA5AEA5BFA5A0
:10210000898B9A8BAB8BBC8B88A999A9AAA9BBA9EF
:102110008D879E87AF87B88B8CA99DA9AEA9BFA9D3
:1021200089879A87AB87BC87072E000C880B990B91
:1021300049D22FED30EE4AE751E47FD39B01AC0149
:1021400037D12AED3FE049E450E477D320E030E096
:1021500046E154E498D169837A838B839C83B701E9
:10216000FF0C880B990B2ED22FED30EE4AE751E48D
:1021700064D39B01AC011CD12AED3FE049E450E45B
:102180005CD320E030E046E154E47DD16D837E8372
:102190008F83988729813A814B815C8108D120E027
:1021A00030E044EB52E46FD19B01AC012B013C01C8
:1021B00077FA709477F87094C501B401F8D06B0188
:1021C0007C0127E137EB41ED58E3C301B20131D384
:1021D000882354F427E137EB41ED58EBC301B201FA
:1021E0004BD118160CF43DC0A301920169817A818C
:1021F0008B819C8148D120E030E044E352E4D8D088
:102200002B013C01C701B6017BD369837A838B83A1
:102210009C83C501B40174D39B01AC0169817A81AF
:102220008B819C81C4D0A301920107D369837A83F7
:102230008B839C83C701B60123D16D837E838F83FB
:102240009887C501B4011CD19B01AC016D817E81D1
:102250008F819885ACD0A3019201EFD22B013C0174
:102260001AC0C501B4014CD39B01AC016D817E81C4
:102270008F819885E2D22B013C01C501B40100D1C8
:102280009B01AC016D817E818F819885D6D2698357
:102290007A838B839C832AED3FE049E450E4C701B5
:1022A000B601C7D218164CF42AED3FE049EC50E4D1
:1022B000C701B6017CD06B017C012AED3FE049E407
:1022C00050ECC701B601D8D018164CF02AED3FE00B
:1022D00049EC50E4C701B6016BD06B017C01298940
:1022E0003A894B895C89C301B20162D02B013C0160
:1022F0002D853E854F85588969817A818B819C81A6
:1023000057D04B015C010E94990269837A838B83C9
:102310009C832AE037ED43EA5CE3AED01816A4F0C4
:102320002AE037ED43EA5CEB69817A818B819C81FD
:1023300080D288234CF020E030E0A90169857A85BD
:102340008B859C8535D009C029813A814B815C8180
:1023500069857A858B859C852BD0D801CD92DD92BD
:10236000ED92FC921397F80144825582668277823F
:1023700018968D929D92AD92BC921B97648775873B
:1023800086879787C8016496CDBFDEBFDF91CF9166
:102390001F910F91FF90EF90DF90CF90BF90AF9083
:1023A0009F908F907F906F905F904F9008955058BE
:1023B000BB27AA270ED0F2C1BBD130F0C0D120F08C
:1023C00031F49F3F11F41EF4A0C10EF4E095E7FB39
:1023D00096C1E92F05D280F3BA1762077307840705
:1023E000950718F071F49EF51DC20EF4E0950B2EC2
:1023F000BA2FA02D0B01B90190010C01CA01A00157
:102400001124FF27591B99F0593F50F4503E68F1B1
:102410001A16F040A22F232F342F4427585FF3CFF2
:10242000469537952795A795F0405395C9F77EF4C3
:102430001F16BA0B620B730B840BBAF09150A1F00C
:10244000FF0FBB1F661F771F881FC2F70EC0BA0F92
:10245000621F731F841F48F4879577956795B7951A
:10246000F7959E3F08F0B3CF9395880F08F0992712
:10247000EE0F9795879508951ED108F481E0089591
:1024800066D1E3959CC10CD089C159D140F050D19F
:1024900030F021F45F3F19F032C15111C4C135C190
:1024A0009FD198F39923C9F35523B1F3951B550B8D
:1024B000BB27AA2762177307840738F09F5F5F4F17
:1024C000220F331F441FAA1FA9F333D00E2E3AF058
:1024D000E0E830D091505040E695001CCAF729D072
:1024E000FE2F27D0660F771F881FBB1F26173707C1
:1024F0004807AB07B0E809F0BB0B802DBF01FF27F1
:1025000093585F4F2AF09E3F510568F0F8C08BC189
:102510005F3FECF3983EDCF3869577956795B7952A
:10252000F7959F5FC9F7880F911D9695879597F945
:102530000895E1E0660F771F881FBB1F62177307BE
:102540008407BA0720F0621B730B840BBA0BEE1FD3
:1025500088F7E095089504D06894B11164C1089596
:1025600047D188F09F5790F0B92F9927B751A0F025
:10257000D1F0660F771F881F991F1AF0BA95C9F717
:1025800012C0B13081F04ED1B1E008954BC1672F38
:10259000782F8827B85F39F0B93FCCF386957795C7
:1025A0006795B395D9F73EF49095809570956195B0
:1025B0007F4F8F4F9F4F089597FB0EF4A9D03EC0D9
:1025C000E89409C097FB3EF49095809570956195CD
:1025D0007F4F8F4F9F4F9923A9F0F92F96E9BB2783
:1025E0009395F695879577956795B795F111F8CFFF
:1025F000FAF4BB0F11F460FF1BC06F5F7F4F8F4F6A
:102600009F4F16C0882311F096E911C0772321F05F
:102610009EE8872F762F05C0662371F096E8862FF7
:1026200070E060E02AF09A95660F771F881FDAF74E
:10263000880F9695879597F90895E894F92F96EB6A
:10264000FF2381F0121613061406440B9395F6959A
:1026500087957795679557954040FF23B9F71BC03D
:1026600099270895882351F49850D2F7872B762F15
:10267000652F542F432F322F20E0B1F3121613068B
:102680001406440B88233AF09A95440F551F661F91
:10269000771F881FCAF755234AF4440F551F11F4BA
:1026A00060FF04C06F5F7F4F8F4F9F4F880F9695DD
:1026B000879597F90895990F0008550FAA0BE0E840
:1026C000FEEF16161706E807F907C0F012161306F4
:1026D000E407F50798F0621B730B840B950B39F434
:1026E0000A2661F0232B242B252B21F408950A269A
:1026F00009F4A140A6958FEF811D811D089597F9DA
:102700009F6780E870E060E008959FEF80EC089597
:102710009095809570956095509540953095219550
:102720003F4F4F4F5F4F6F4F7F4F8F4F9F4F0895DA
:1027300000240A94161617061806090608950024A0
:102740000A9412161306140605060895DECF50D01B
:10275000E8F3E894E0E0BB279F57F0F02AED3FE074
:1027600049EC06C0EE0FBB0F661F771F881F28F0CD
:10277000B23A62077307840728F0B25A620B730BF0
:10278000840BE3959A9572F7803830F49A95BB0FD5
:10279000661F771F881FD2F79048BAC0092E03948E
:1027A000000C11F4882352F0BB0F40F4BF2B11F43E
:1027B00060FF04C06F5F7F4F8F4F9F4F0895EF936F
:1027C000E0FF06C0A2EA2AED3FE049EC5FEB01DE44
:1027D000E5DF0F90039401FC9058ECEFF1E0A4C00A
:1027E00057FD9058440F551F59F05F3F71F04795C2
:1027F000880F97FB991F61F09F3F79F087950895A7
:10280000121613061406551FF2CF4695F1DF08C0C5
:10281000161617061806991FF1CF869571056105E2
:1028200008940895E894BB2766277727CB0197F98A
:10283000089541DF08F48FEF08950BD0AFCF78DF14
:1028400028F07DDF18F0952309F059CF5ECF1124D1
:10285000EACFC6DFA0F3959FD1F3950F50E0551F47
:10286000629FF001729FBB27F00DB11D639FAA27E5
:10287000F00DB11DAA1F649F6627B00DA11D661F34
:10288000829F2227B00DA11D621F739FB00DA11D55
:10289000621F839FA00D611D221F749F3327A00D0F
:1028A000611D231F849F600D211D822F762F6A2FAB
:1028B00011249F5750408AF0E1F088234AF0EE0F30
:1028C000FF1FBB1F661F771F881F91505040A9F73D
:1028D0009E3F510570F013CFA6CF5F3FECF3983EBB
:1028E000DCF3869577956795B795F795E7959F5FA4
:1028F000C1F7FE2B880F911D9695879597F908953E
:102900009F9325DF0F9007FCEE5F59CF9F3F31F07B
:10291000915020F4879577956795B795880F911D0D
:102920009695879597F908959F938F937F936F93CB
:10293000FF93EF939B01AC0180DFEF91FF9105D0F6
:102940002F913F914F915F9178CFDF93CF931F935A
:102950000F93FF92EF92DF927B018C01689405C088
:10296000DA2EEF0176DFFE01E894A59125913591ED
:1029700045915591AEF3EF012CDDFE019701A801C1
:10298000DA9479F7DF90EF90FF900F911F91CF913C
:10299000DF91089597FB072E16F4009406D077FD7B
:1029A00008D03CD007FC05D03EF4909581959F4F10
:1029B0000895709561957F4F0895A29FB001B39FD0
:1029C000C001A39F700D811D1124911DB29F700D38
:1029D000811D1124911D08950F93083090F0982FB8
:1029E000872F762F652F542F432F322F2227085001
:1029F000F4CF220F331F441F551F661F771F881FF8
:102A0000991F0A95B2F70F9108952A0D3B1D4C1D91
:102A10005D1D6E1D7F1D801F911F0895AA1BBB1B8E
:102A200051E107C0AA1FBB1FA617B70710F0A61BCE
:102A3000B70B881F991F5A95A9F780959095BC01EF
:102A4000CD0108952F923F924F925F926F927F92A5
:102A50008F929F92AF92BF92CF92DF92EF92FF92AE
:102A60000F931F93CF93DF93CDB7DEB72B97CDBFD7
:102A7000DEBF6C017B018A01FC0116821782838113
:102A800081FFBFC1CE0101963C01F6019381F701A0
:102A900093FD859193FF81917F01882309F4ADC156
:102AA000853239F493FD859193FF81917F018532C1
:102AB00021F4B60190E0D3D1E8CF912C212C312C18
:102AC000FFE1F315D8F08B3279F038F4803279F0E9
:102AD0008332A1F4232D20611DC08D3261F080333B
:102AE00069F4232D216016C0832D8260382EE32DDA
:102AF000E4603E2E2AC0F32DF8601DC037FC2DC0C7
:102B000020ED280F2A3040F08E32B9F436FC75C122
:102B1000232D2064322E19C036FE06C08AE0989E0E
:102B2000200D1124922E11C0EAE02E9E200D1124BA
:102B3000222EF32DF0623F2E08C08C3621F4832D17
:102B40008068382E02C0883641F4F70193FD8591E4
:102B500093FF81917F018111B3CF982F9F7D955471
:102B6000933028F40C5F1F4F9FE399830DC0833689
:102B700031F0833771F0833509F055C020C0F8017A
:102B8000808189830E5F1F4F88248394912C530189
:102B900012C02801F2E04F0E511CF801A080B18054
:102BA00036FE03C0692D70E002C06FEF7FEFC501F4
:102BB0004BD14C018201F32DFF773F2E15C0280128
:102BC00022E0420E511CF801A080B18036FE03C005
:102BD000692D70E002C06FEF7FEFC5012AD14C0173
:102BE000F32DF0683F2E820133FC19C0822D90E056
:102BF00088169906A0F4B60180E290E030D12A94BC
:102C0000F5CFF50137FC859137FE81915F01B60163
:102C100090E025D121102A9421E0821A9108811494
:102C2000910479F7E1C0843611F0893639F5F8015D
:102C300037FE07C060817181828193810C5F1F4FD5
:102C400008C060817181072E000C880B990B0E5F04
:102C50001F4FF32DFF763F2E97FF09C0909580956B
:102C6000709561957F4F8F4F9F4FF0683F2E2AE000
:102C700030E0A30130D1882E861844C0853731F466
:102C8000232D2F7EB22E2AE030E025C0932D997F90
:102C9000B92E8F36C1F018F4883579F0AEC0803780
:102CA00019F0883721F0A9C0E92FE061BE2EB4FEEB
:102CB0000DC0FB2DF460BF2E09C034FE0AC0292FC1
:102CC0002660B22E06C028E030E005C020E130E0EA
:102CD00002C020E132E0F801B7FE07C060817181D7
:102CE000828193810C5F1F4F06C06081718180E0FB
:102CF00090E00E5F1F4FA301EED0882E8618FB2DAB
:102D0000FF773F2E36FE0DC0232D2E7FA22E891475
:102D100058F434FE0BC032FC09C0832D8E7EA82EE1
:102D200005C0B82CA32C03C0B82C01C0B92CA4FE3C
:102D30000FC0FE01E80DF11D8081803321F49A2D32
:102D4000997EA92E09C0A2FE06C0B394B39404C014
:102D50008A2D867809F0B394A3FC10C0A0FE06C0AB
:102D6000B21480F4280C922C9B180DC0B21458F4A5
:102D7000B60180E290E073D0B394F8CFB21418F4A7
:102D80002B1802C0982C212CA4FE0FC0B60180E3A2
:102D900090E065D0A2FE16C0A1FC03C088E790E0D9
:102DA00002C088E590E0B6010CC08A2D867851F00B
:102DB000A1FE02C08BE201C080E2A7FC8DE2B60159
:102DC00090E04DD0891430F4B60180E390E047D014
:102DD0009A94F8CF8A94F301E80DF11D8081B60131
:102DE00090E03DD08110F6CF222009F44ECEB601FE
:102DF00080E290E034D02A94F7CFF6018681978163
:102E000002C08FEF9FEF2B96CDBFDEBFDF91CF913A
:102E10001F910F91FF90EF90DF90CF90BF90AF90F8
:102E20009F908F907F906F905F904F903F902F90EA
:102E30000895FC010590615070400110D8F780950D
:102E400090958E0F9F1F0895FC0161507040019076
:102E50000110D8F7809590958E0F9F1F08950F93BE
:102E60001F93CF93DF93FB01238121FD03C08FEFDD
:102E70009FEF2CC022FF16C04681578124813581E7
:102E80004217530744F4A081B1819D012F5F3F4F4A
:102E9000208331838C93268137812F5F3F4F268398
:102EA000378314C08B01EC01FB010084F185E02D18
:102EB0001995892BE1F6D80116968D919C9117975B
:102EC000019616968D939C931797CE01DF91CF9123
:102ED0001F910F910895FA01AA27283051F120314E
:102EE00081F1E8946F936E7F6E5F7F4F8F4F9F4F9E
:102EF000AF4FB1E03ED0B4E03CD0670F781F891FE0
:102F00009A1FA11D680F791F8A1F911DA11D6A0FAD
:102F1000711D811D911DA11D20D009F468943F9160
:102F20002AE0269F11243019305D3193DEF6CF015F
:102F30000895462F4770405D4193B3E00FD0C9F725
:102F4000F6CF462F4F70405D4A3318F0495D31FD92
:102F50004052419302D0A9F7EACFB4E0A6959795E5
:102F6000879577956795BA95C9F7009761057105BB
:102F700008959B01AC010A2E069457954795379505
:102F80002795BA95C9F7620F731F841F951FA01D5F
:062F90000895F894FFCF44
:102F96008FC2F53E000000400000C0408FC2F53EE3
:102FA600000000400000C0400000003F0100050096
:102FB60005001E000A0008000700050004000300C3
:102FC600020001000000FFFFFEFFFDFFFCFFFBFF0C
:102FD600F9FFF8FFF6FF30F818FC44FD70FE38FFE5
:102FE6009CFFD8FFFBFF050028006400C800900185
:082FF600BC02E803D00710271C
:00000001FF
