S01200006D6963726F6D6F7573652E73726563CF
S113000017C100000C94890934C1000032C10000FA
S113001030C100002EC100002CC100002AC1000024
S113002028C1000026C1000024C1000022C1000034
S113003020C100001EC100001CC100001AC1000044
S113004018C1000016C1000014C1000012C1000054
S11300500C9457080EC100000CC100000AC1000036
S113006008C1000006C1000004C1000002C1000074
S113007000C10000FEC00000FCC00000FAC0000087
S1130080F8C00000F6C00000F4C00000F2C0000098
S1130090F0C00000EEC00000ECC000003FC600004D
S11300A053C6000067C600007BC60000E2C0000023
S11300B0E0C00000DEC00000DCC00000DAC00000C8
S11300C0D8C00000D6C00000D4C00000D2C00000D8
S11300D0D0C00000CEC00000CCC00000CAC00000E8
S11300E0C8C00000C6C00000C4C00000C2C00000F8
S11300F0C0C00000BEC00000BCC00000BAC0000008
S1130100B8C00000B6C00000B4C00000B2C0000017
S11301109BC60000AEC00000ACC00000AAC0000036
S1130120A8C00000A6C00000A4C00000A2C0000037
S1130130A0C000009EC000009CC000009AC0000047
S113014098C0000096C0000094C000008CC6000057
S113015090C000008EC000008CC000008AC0000067
S113016088C0000086C0000084C0000082C0000077
S113017080C000007EC000007CC000007AC0000087
S113018078C0000076C0000074C0000072C0000097
S113019070C000006EC000006CC000006AC00000A7
S11301A015C600001DC6000064C0000062C0000047
S11301B060C000005EC000005CC000005AC00000C7
S11301C058C0000056C0000054C0000052C00000D7
S11301D050C000004EC000004CC000004AC00000E7
S11301E048C0000046C0000044C0000042C00000F7
S11301F040C000003EC000003CC0000005A84CCD3B
S1130200B2D44EB93836A9020C50B9918688083C4C
S1130210A6AAAA2ABE000000803F5765776E205226
S1130220432033324D487A0041776172696121007D
S113023011241FBECFEFCDBFDFE3DEBF00E00CBF54
S113024010E2A0E0B0E2E4E8FDE200E00BBF02C08F
S113025007900D92AA36B107D9F72EE2AAE6B0E2CA
S113026001C01D92A93DB207E1F70E94C1090C9497
S1130270C016C6CE88E08093410684E0809342068F
S11302801092A7088FEC8093A6081092A308E0EAC6
S1130290F8E083E085838481886184830895E1EABA
S11302A0F8E0908195FFFDCF8093A0080895E0EADF
S11302B0F4E088E3818391E09283948393E29583CD
S11302C0E0E8F6E0808B818B089596ED9093A60488
S11302D0E0EAF4E0948196FFFDCF8093A704E0EA7E
S11302E0F4E0848186FFFDCF6093A704E0EAF4E0A4
S11302F0848186FFFDCF83E08093A30481E0089589
S113030060E081E2E2DF60E882E2DFDF60EA83E26C
S1130310DCDF6FE184E3D9DF68E585E3D6DF61E004
S113032088E3D3DF68E080E3D0DF6FEF80E2CDCFF6
S1130330089596ED9093A604E0EAF4E0948196FF84
S1130340FDCF8093A704E0EAF4E0848186FFFDCF2B
S113035087ED8093A604E0EAF4E084818823ECF737
S1130360E0EAF4E083818460838387810895AF9217
S1130370BF92CF92DF92EF92FF920F931F938AE284
S1130380D8DFA82E8BE2D5DF282F30E040E050E004
S113039060E070E080E090E008E00E94E313B12C9C
S11303A0C12CD12CE12CF12C00E010E00E94FC13B4
S11303B00E94D3116093B7267093B8268093B92610
S11303C09093BA261F910F91FF90EF90DF90CF90FA
S11303D0BF90AF900895CBDF6091B7267091B82697
S11303E08091B9269091BA26089580FF04C090E1C7
S11303F09093450603C090E19093460681FF04C0A4
S113040090E29093450603C090E29093460682FFE3
S113041004C090E49093450603C090E4909346068C
S113042083FF04C080E880934506089580E88093A4
S1130430460608950F931F93CF93DF93082FC0E4CC
S1130440D6E018E01D8382958F70CFDF1E830000F5
S11304501D83802FCADF1E838FE891E00197F1F797
S113046000C00000DF91CF911F910F91089594E097
S113047090934606DFCF089594E090934506DACF33
S11304800895CF93DF93EC012196FC018491882396
S113049031F0F2DFFE01849121968111FACFDF91D0
S11304A0CF91089581E0E3DF8FE79EE30197F1F7B1
S11304B000C000000895AAECB1E092E09C93E82FFC
S11304C0F0E084911C92089582E080935000E0E56E
S11304D0F0E0818181FFFDCF88ED84BF81E08093CE
S11304E04000E0DF8AE192E0CCDF2FEF87EA91E67B
S11304F0215080409040E1F700C00000D3CF089520
S11305000F931F93CF93DF93DFDFC0E4D2E014E0B7
S11305101C8300E1098380E2CEDF8C8781E2CBDF9C
S11305208D870A831B8281E0888397E09093A200E1
S1130530E0E2F6E032E0328388A319A28E8393E0EE
S11305409AA3828388A728E029A73E839AA71283C7
S113055088AB09AB1E839AAB228388AF88E189AF4D
S11305602E839AAF7894DF91CF911F910F910895C4
S11305708F929F92AF92BF92DF92EF92FF920F936E
S11305801F93CF93DF93CDB7DEB7A897CDBFDEBF60
S1130590BE016F5F7F4FAE014B5E5F4F7A019A01E0
S11305A05B01E0E4F2E00F2EF0E88F2EF6E09F2EE0
S11305B0F02D6894DD24D4F81AE61A95F1F700C0FA
S11305C080AD806880AF85ED8A95F1F70000809159
S11305D0A1259091A2258133A5E79A0720F4D9019A
S11305E08D939C9303C0D9011D921C928FE891E0D6
S11305F00197F1F700C00000D4011596DC92B5E331
S1130600BA95F1F7000080AD806880AF15E31A95C4
S1130610F1F70000D4011696DC92B5EDBA95F1F726
S113062000008091A1259091A225813315E79107BF
S113063020F4D5018D939C9303C0D5011D921C9287
S1130640B2E0AB0EB11C2E5F3F4FAE14BF0409F0F5
S1130650B3CF8E01075D1F4FE0E0F0E020E030E013
S1130660DA018D919D91AD01E80FF91FDB018D91A8
S11306709D91BD01280F391F4017510789F7ADEC33
S1130680BCEC0E94D413AC015695479556954795FA
S1130690569547959F010E94D413969587959695F4
S11306A08795969587959A01281B390BC901813343
S11306B035E7930710F080E090E0A896CDBFDEBF49
S11306C0DF91CF911F910F91FF90EF90DF90BF903A
S11306D0AF909F908F9008958F929F92AF92BF9208
S11306E0DF92EF92FF920F931F93CF93DF93CDB7D7
S11306F0DEB7A897CDBFDEBFBE016F5F7F4FAE01EF
S11307004B5E5F4F7A019A015B01E0E4F2E00F2E49
S1130710F0E88F2EF6E09F2EF02D6894DD24D7F8B4
S11307201AE61A95F1F700C080A1806880A385EDD0
S11307308A95F1F7000080919D2490919E24813345
S1130740A5E79A0720F4D9018D939C9303C0D9019E
S11307501D921C928FE891E00197F1F700C0000010
S1130760D4011596DC92B5E3BA95F1F7000080A1A7
S1130770806880A315E31A95F1F70000D40116965A
S1130780DC92B5EDBA95F1F7000080919D2490912B
S11307909E24813315E7910720F4D5018D939C9312
S11307A003C0D5011D921C92B2E0AB0EB11C2E5FAA
S11307B03F4FAE14BF0409F0B3CF8E01075D1F4F46
S11307C0E0E0F0E020E030E0DA018D919D91AD01B0
S11307D0E80FF91FDB018D919D91BD01280F391F91
S11307E04017510789F7ADECBCEC0E94D413AC015F
S11307F05695479556954795569547959F010E945E
S1130800D4139695879596958795969587959A018D
S1130810281B390BC901813335E7930710F080E0B9
S113082090E0A896CDBFDEBFDF91CF911F910F91CD
S1130830FF90EF90DF90BF90AF909F908F900895BE
S11308406F927F928F929F92BF92CF92DF92EF929C
S1130850FF920F931F93CF93DF93CDB7DEB7A89783
S1130860CDBFDEBF9E012F5F3F4F4901AE014B5EFE
S11308705F4F6A019A013401E0E4F2E00F2EF0E8E0
S1130880EF2EF6E0FF2EF02D6894BB24B6F86AE64E
S11308906A95F1F700C080A5806880A785ED8A95E8
S11308A0F1F7000080919522909196228133A5E77B
S11308B09A0720F4D9018D939C9303C0D9011D920A
S11308C01C928FE891E00197F1F700C00000D70176
S11308D01596BC92B5E3BA95F1F7000080A580683F
S11308E080A765E36A95F1F70000D7011696BC92DC
S11308F0B5EDBA95F1F7000080919522909196227A
S1130900813365E7960720F4D3018D939C9303C04C
S1130910D3011D921C92B2E06B0E711C2E5F3F4FEF
S11309206C147D0409F0B3CFFE01B99620E030E0E9
S1130930DA018D919D91AD01080F191FD4018D919C
S11309409D914D01280F391F4E175F0789F7ADECB4
S1130950BCEC0E94D413AC01569547955695479527
S11309605695479598010E94D4139695879592952C
S113097082958F7089279F7089279A01281B390BCC
S1130980C901813335E7930710F080E090E0A89621
S1130990CDBFDEBFDF91CF911F910F91FF90EF90FC
S11309A0DF90CF90BF909F908F907F906F9008952D
S11309B06F927F928F929F92BF92CF92DF92EF922B
S11309C0FF920F931F93CF93DF93CDB7DEB7A89712
S11309D0CDBFDEBF9E012F5F3F4F4901AE014B5E8D
S11309E05F4F6A019A013401E0E4F2E00F2EF0E86F
S11309F0EF2EF6E0FF2EF02D6894BB24B5F86AE6DE
S1130A006A95F1F700C080A9806880AB85ED8A956E
S1130A10F1F7000080919A2390919B238133A5E7FD
S1130A209A0720F4D9018D939C9303C0D9011D9298
S1130A301C928FE891E00197F1F700C00000D70104
S1130A401596BC92B5E3BA95F1F7000080A98068C9
S1130A5080AB65E36A95F1F70000D7011696BC9266
S1130A60B5EDBA95F1F7000080919A2390919B23FC
S1130A70813365E7960720F4D3018D939C9303C0DB
S1130A80D3011D921C92B2E06B0E711C2E5F3F4F7E
S1130A906C147D0409F0B3CFFE01B99620E030E078
S1130AA0DA018D919D91AD01080F191FD4018D912B
S1130AB09D914D01280F391F4E175F0789F7ADEC43
S1130AC0BCEC0E94D413AC015695479556954795B6
S1130AD05695479598010E94D413969587959295BB
S1130AE082958F7089279F7089279A01281B390B5B
S1130AF0C901813335E7930710F080E090E0A896B0
S1130B00CDBFDEBFDF91CF911F910F91FF90EF908A
S1130B10DF90CF90BF909F908F907F906F900895BB
S1130B20E0E6F6E088E3818380E2868380E18683E1
S1130B30E0E0F9E083E9818384EF91E086A397A361
S1130B4016A617A681E080830895E0E6F6E087E024
S1130B50818382E0868384E0868310922809109240
S1130B6029090895082E000C990B9C01220F331FAC
S1130B70220F331F820F931F80932E0990932F0906
S1130B80611107C0E0E6F6E080E2868380E18683B7
S1130B900895613039F4E0E6F6E080E2858380E18F
S1130BA085830895623039F4E0E6F6E080E28683D6
S1130BB080E185830895E0E6F6E080E2858380E1C4
S1130BC086830895082E000C990B9C01220F331F75
S1130BD0220F331F820F931F8093280990932909B2
S1130BE0611107C0E0E6F6E082E0868384E0868354
S1130BF00895613039F4E0E6F6E082E0858384E02C
S1130C0085830895623039F4E0E6F6E082E0868375
S1130C1084E085830895E0E6F6E082E0858384E05D
S1130C208683089580E88093A506E0E8F3E087E1F1
S1130C30828383E980838DE2858381E084830895C0
S1130C40EF92FF920F931F93CF93DF93C0EAD6E006
S1130C508CE08A8384E08A8728E02B878AE18A8B68
S1130C608B8B85E08987E0E4F6E08BE1808B818BD8
S1130C70E0E8F1E090E690839FE0908700E018E0E0
S1130C80D8012C9328E613962C93888B898B88E7BC
S1130C90828392870F2EE12CFBE0FF2EF02D8AE059
S1130CA0F70180838AE683833BDF4FDFE0E8F6E0E9
S1130CB080EF8183868380EE89838E8321DCB2DF9B
S1130CC0D9DAF5DA1DDBA0E4B9E081E016968C935D
S1130CD0169711961C9211978CE093E096968D933B
S1130CE09C939797E0E4F8E083E0868311828CE993
S1130CF090E086A397A387E08C9380837894D801AF
S1130D0090961D921C929197F70110A211A2DF9167
S1130D10CF911F910F91FF90EF9008951F920F9222
S1130D200FB60F9211248F939F938091500290914C
S1130D30510280939D2490939E249F918F910F90B4
S1130D400FBE0F901F9018951F920F920FB60F921F
S1130D5011248F939F938091520290915302809318
S1130D609522909396229F918F910F900FBE0F9092
S1130D701F9018951F920F920FB60F9211248F9304
S1130D809F93809154029091550280939A2390935B
S1130D909B239F918F910F900FBE0F901F901895DA
S1130DA01F920F920FB60F9211248F939F938091ED
S1130DB05602909157028093A1259093A2259F916A
S1130DC08F910F900FBE0F901F9018951F920F9246
S1130DD00FB60F9211240F900FBE0F901F9018950D
S1130DE01F920F920FB60F9211240BB60F922F93EE
S1130DF03F934F935F936F937F938F939F93AF939F
S1130E00BF93EF93FF932FEF83ED90E32150804046
S1130E109040E1F700C000006AED7FE089EC9FE3B9
S1130E20A0D7FF91EF91BF91AF919F918F917F9147
S1130E306F915F914F913F912F910F900BBE0F9047
S1130E400FBE0F901F9018951F920F920FB60F921E
S1130E5011248F9380E88093A7068F910F900FBE83
S1130E600F901F9018951F920F920FB60F92112496
S1130E700BB60F922F933F934F935F936F937F9390
S1130E808F939F93AF93BF93EF93FF9391DD8093E1
S1130E90C9269093CA26D4DC8093CB269093CC2683
S1130EA067DB8093A3269093A42616DC8093BB264D
S1130EB09093BC2645EA5EE2ADE9BEE20DC0208116
S1130EC03181228333833A96E617F707C1F74250FC
S1130ED051094A175B0729F0BA01685D7F4FFA018F
S1130EE0EECF2091C9263091CA26EFE9FEE2208395
S1130EF031834091CB265091CC2642875387609111
S1130F00A3267091A426648B758B868F978F10927D
S1130F108420109285202536310534F1453651055B
S1130F2084F0CA01821B930B8093C72E9093C82E22
S1130F3020936C2030936D2040936A2050936B2053
S1130F4035C04436510534F5860F971F80329340DF
S1130F500CF580916C2090916D20821B930B8093F3
S1130F60C72E9093C82E22C0243631059CF44536F2
S1130F70510584F0860F971F803293405CF4809172
S1130F806A2090916B20481B590B4093C72E5093B5
S1130F90C82E0CC01092C72E1092C82E8091BD2668
S1130FA09091BE26019709F06FC066C08091BD265E
S1130FB09091BE26019709F067C08091C72E909149
S1130FC0C82E181619065CF526EF3FEF2093202053
S1130FD030932120E6D19C01809188209091892032
S1130FE06EE170E00E94C113CB01829FB001839F28
S1130FF0700D929F700D1124072E000C880B990B15
S11310000E94D91126E636E646E054E40E94141301
S11310100E94A211609386207093872035C0992383
S11310205CF52AE030E02093202030932120B9D1D0
S11310309C0180918820909189206EE170E00E944B
S1131040C113CB01829FB001839F700D929F700DDD
S11310501124072E000C880B990B0E94D91126E647
S113106036E646E054E40E9414130E94A2116093F1
S113107086207093872008C010922020109221208F
S11310801092862010928720FF91EF91BF91AF912B
S11310909F918F917F916F915F914F913F912F918C
S11310A00F900BBE0F900FBE0F901F9018951F92BC
S11310B00F920FB60F9211240BB60F922F923F92FC
S11310C04F925F926F927F928F929F92AF92BF9254
S11310D0CF92DF92EF92FF920F931F932F933F9340
S11310E04F935F936F937F938F939F93AF93BF932C
S11310F0EF93FF93CF93DF93CDB7DEB76297CDBF66
S1131100DEBF20E038E0F90140A151A160E070E0C9
S113111000E01BE0F80180A191A1A0E0B0E0809381
S1131120C1269093C226A093C326B093C426F90186
S113113010A211A2F80110A211A2002711279801F0
S1131140041B150B260B370B0133F5E71F0721058D
S113115031054CF40093C5261093C6262093C72668
S11311603093C82612C000E010E02FEF3FEF680173
S11311707901C41AD50AE60AF70AC092C526D092A4
S1131180C626E092C726F092C826813325E7920747
S1131190A105B1054CF011978093C1269093C22606
S11311A0A093C326B093C4265090C5264090C6266B
S11311B03090C7262090C826C52CD42CE091C12697
S11311C0F091C2268091C326898B9091C4269A8B74
S11311D0AE2FBF2F36016A1A7B0A6092702070927C
S11311E07120CA0EDB1EC0926E20D0926F208090B8
S11311F0082090900920A0900A20B0900B20E09045
S11312000C20F0900D2000910E2010910F202091C1
S113121010203091112040911220509113206091A0
S11312201420709115208091162090911720AA897E
S1131230AF93A989AF93FF93EF932F923F924F926D
S11312405F927F926F92E0910320EF93E0910220EE
S1131250EF93E0910120EF93E0910020EF93E09170
S11312600720EF93E0910620EF93E0910520EF93A0
S1131270E0910420EF93E9D44091C1265091C22615
S11312806091C5267091C626EDB7FEB77097EDBF85
S1131290FEBFADB7BEB7119680E1E5EAF6E2019074
S11312A00D928A95E1F7CE01019602D680E1FE0106
S11312B03196A5EAB6E201900D928A95E1F7CDBF89
S11312C0DEBF6296CDBFDEBFDF91CF91FF91EF917C
S11312D0BF91AF919F918F917F916F915F914F914A
S11312E03F912F911F910F91FF90EF90DF90CF903E
S11312F0BF90AF909F908F907F906F905F904F9032
S11313003F902F900F900BBE0F900FBE0F901F9029
S113131018951F920F920FB60F9211240BB60F92CD
S11313202F933F934F935F936F937F938F939F93E9
S1131330AF93BF93EF93FF93E0E5F0E08381826086
S11313408383B0D888E292E09CD82FEF87EA91E6B5
S1131350215080409040E1F700C00000FF91EF91E0
S1131360BF91AF919F918F917F916F915F914F91B9
S11313703F912F910F900BBE0F900FBE0F901F90B7
S1131380189571D5C8E6D0E28C2F0E944F012FEF3B
S113139087EA91E6215080409040E1F700C00000C8
S11313A0F3CFCF93DF93CDB7DEB7C454D109CDBF0C
S11313B0DEBF24E4E4E2F0E2DE01119601900D9236
S11313C02A95E1F72BA13CA18217930754F0FE0163
S11313D0B59621E030E041915191841795075CF472
S11313E002C020E030E0220F331FFE01E20FF31FA2
S11313F08181928107C02F5F3F4F2031310559F71A
S113140080E090E0CC5BDF4FCDBFDEBFDF91CF91BA
S113141008954F925F926F927F928F929F92AF92B4
S1131420BF92CF92DF92EF92FF92CF93DF9300D0DF
S11314301F92CDB7DEB76B017C0149015A0180913F
S113144022209091232099230CF4ACC08091822017
S113145090918320892B09F053C0209188203091EA
S1131460892080911E2090911F20A901481B590BAF
S1131470280F391F429FC001439F900D529F900D2A
S1131480112460911C2070911D20660F771F660F38
S1131490771F0E94C113072E000C880B990B89D764
S11314A069837A838B839C836091902070919120CF
S11314B0072E000C880B990B7CD72B013C0120E0F4
S11314C030E0A9010E941013882324F477FA709461
S11314D077F87094A301920169817A818B819C8150
S11314E00E941013882364F082E090E080938220AD
S11314F09093832085E090E0809322209093232092
S1131500809188209091892020912220309123205D
S11315108217930704F5853091053CF485E090E04B
S113152080938820909389200AC040911C20509178
S11315301D20840F951F809388209093892080918B
S113154088209091892028173907D4F42093882083
S11315503093892015C02817390794F440911C2032
S113156050911D20841B950B821793072CF08093B8
S113157088209093892004C0209388203093892068
S11315808091902090919120181619060CF4B4C003
S113159010928820109289208091CD268E7F80938E
S11315A0CD26AAC08091822090918320892B09F0B6
S11315B052C0209188203091892080911E209091E2
S11315C01F20A901481B590B280F391F429FC00136
S11315D0439F900D529F900D112460911C20709197
S11315E01D20660F771F660F771F0E94C113072EF9
S11315F0000C880B990BDDD669837A838B839C83DB
S11316006091902070919120072E000C880B990B0B
S1131610D0D62B013C0120E030E0A9010E94101338
S1131620882324F477FA709477F87094A3019201D4
S113163069817A818B819C81F3D7882364F082E06D
S113164090E080938220909383208BEF9FEF809390
S113165022209093232080918820909189202091AA
S1131660222030912320281739070CF58C3F4FEFA7
S113167094073CF08BEF9FEF809388209093892010
S11316800AC040911C2050911D20841B950B80930F
S113169088209093892080918820909189208217B6
S11316A09307D4F4209388203093892015C082179F
S11316B0930794F440911C2050911D20840F951F92
S11316C0281739072CF0809388209093892004C030
S11316D020938820309389208091902090919120AC
S11316E0181619064CF410928820109289208091C3
S11316F0CD268E7F8093CD2680919020909191204D
S1131700881999098C199D098093902090939120B0
S11317102496CDBFDEBFDF91CF91FF90EF90DF9095
S1131720CF90BF90AF909F908F907F906F905F907D
S11317304F9008954F925F926F927F928F929F92F3
S1131740AF92BF92CF92DF92EF92FF92CF93DF934B
S113175000D01F92CDB7DEB74B015C0169017A015D
S1131760809120209091212099230CF49CC0809199
S1131770842090918520892B09F054C08091922077
S1131780909193209C01255031090596289FB00122
S1131790299F700D389F700D1124072E000C880BA3
S11317A0990B07D62B013C016091182070911920E8
S11317B080911A2090911B209B01AC01F0D49B01D5
S11317C0AC01C301B20156D569837A838B839C83B0
S11317D06091862070918720072E000C880B990B4E
S11317E0E8D52B013C0120E030E0A90119D788237A
S11317F024F477FA709477F87094A30192016981C4
S11318007A818B819C810CD7882364F082E090E0FC
S1131810809384209093852085E090E0809320201D
S113182090932120809192209091932020912020C8
S113183030912120821793077CF440911C20509111
S11318401D20840F951F281739070CF0D1C0209351
S113185092203093932015C02817390794F44091AF
S11318601C2050911D20841B950B821793072CF08C
S1131870809392209093932004C0209392203093DD
S113188093208091862090918720181619060CF4D5
S1131890A2C010929220109293208091CD268D7F29
S11318A08093CD2698C08091842090918520892BA7
S11318B009F054C080919220909193209C0125506E
S11318C031090596289FB001299F700D389F700D2E
S11318D01124072E000C880B990B6BD52B013C01AE
S11318E0609118207091192080911A2090911B20EA
S11318F09B01AC0154D49B01AC01C301B201BAD425
S113190069837A838B839C8360918620709187207E
S1131910072E000C880B990B4CD52B013C0120E0C1
S113192030E0A9017DD6882324F477FA709477F8FF
S11319307094A301920169817A818B819C8170D614
S1131940882364F082E090E0809384209093852043
S11319508BEF9FEF80932020909321208091922001
S1131960909193202091202030912120281739072D
S113197074F440911C2050911D20841B950B8217F8
S11319809307DCF5209392203093932015C082179F
S1131990930794F440911C2050911D20840F951FAF
S11319A0281739072CF0809392209093932004C039
S11319B020939220309393208091862090918720C9
S11319C099234CF010929220109293208091CD266E
S11319D08D7F8093CD26C818D90880918620909158
S11319E08720C80ED91EC0928620D09287200AC0B4
S11319F0809392209093932044CF8093922090934D
S1131A009320DACF2496CDBFDEBFDF91CF91FF9034
S1131A10EF90DF90CF90BF90AF909F908F907F908A
S1131A206F905F904F9008954F925F926F927F9264
S1131A308F929F92AF92BF92CF92DF92EF92FF92DA
S1131A400F931F93CF93DF93CDB7DEB76497CDBFCA
S1131A50DEBF6D837E838F839887298B3A8B4B8B74
S1131A605C8BE986FA860B871C87609188207091CD
S1131A7089206C197D096093B5267093B626072ECC
S1131A80000C880B990B95D46B017C012091762076
S1131A9030917720409178205091792080D36983C8
S1131AA07A838B839C8360937620709377208093D2
S1131AB0782090937920609192207091932088A946
S1131AC099A9681B790B60938E2070938F20072E41
S1131AD0000C880B990B6DD42B013C0120917220D2
S1131AE030917320409174205091752058D36D87A4
S1131AF07E878F87988B6093722070937320809376
S1131B0074209093752020917E2030917F20409105
S1131B10802050918120C701B60140D329853A85A0
S1131B204B855C8581D5A701960139D369877A876E
S1131B308B879C8729893A894B895C8960E070E0AE
S1131B4080E89FE397D329813A814B815C816CD5EE
S1131B509B01AC0169857A858B859C8520D32D8179
S1131B603E814F81588560D569837A838B839C83BA
S1131B7020917A2030917B2040917C2050917D20CF
S1131B80C301B2010BD32CA53DA54EA55FA54CD531
S1131B90A301920104D36D837E838F83988728A544
S1131BA039A54AA55BA560E070E080E89FE362D3B5
S1131BB02D853E854F85588937D59B01AC016D81B4
S1131BC07E818F819885EBD2A50194012DD54B019F
S1131BD05C019B01AC0169817A818B819C81DFD29C
S1131BE0B1D360938C2070938D20A50194016981F9
S1131BF07A818B819C81D2D2A5D360938A20709301
S1131C008B20C0927E20D0927F20E0928020F092A0
S1131C10812040927A2050927B2060927C207092A6
S1131C207D206496CDBFDEBFDF91CF911F910F91D0
S1131C30FF90EF90DF90CF90BF90AF909F908F90E8
S1131C407F906F905F904F9008952F923F924F92A4
S1131C505F926F927F928F929F92AF92BF92CF9238
S1131C60DF92EF92FF920F931F93CF93DF93CDB741
S1131C70DEB72C97CDBFDEBF69837A838B839C83C9
S1131C802D833E834F835887E986FA860B871C870A
S1131C9016011AA10BA1FCA0EDA0DEA0CFA078A490
S1131CA069A45AA44BA428A939A94AA95BA96CA57B
S1131CB07DA58EA59FA53EDD28A939A94AA95BA9C2
S1131CC06CA57DA58EA59FA5A4DB4F925F926F9214
S1131CD07F92CF92DF92EF92FF920F931F93610155
S1131CE0E984FA840B851C852D813E814F815885BA
S1131CF069817A818B819C8197DE80918C2090917F
S1131D008D20CDBFDEBF992324F062E00E94E2055E
S1131D1004C063E081950E94E20580918A2090913D
S1131D208B20992324F063E00E94B20504C062E092
S1131D3081950E94B2052C96CDBFDEBFDF91CF9175
S1131D401F910F91FF90EF90DF90CF90BF90AF90D5
S1131D509F908F907F906F905F904F903F902F90C7
S1131D600895CF92DF92EF92FF926B017C01109263
S1131D70BD261092BE2626E437E049E054E454D44C
S1131D80E1D260938620709387208091CD26826073
S1131D908093CD2620E030E0A901C701B60140D4EC
S1131DA018163CF48AE090E0809320209093212040
S1131DB013C020E030E0A901C701B60154D281115B
S1131DC005C0109220201092212006C086EF9FEFBC
S1131DD0809320209093212010922220109223207F
S1131DE010929020109291201092B5261092B6264F
S1131DF010927620109277201092782010927920F9
S1131E0010928E2010928F201092722010927320C4
S1131E10109274201092752010927E2010927F20D0
S1131E20109280201092812010927A2010927B20B0
S1131E3010927C2010927D20109284201092852094
S1131E4010928220109283208FE39FE10197F1F793
S1131E5000C000008091CD268111F6CFFF90EF9055
S1131E60DF90CF9008950E942006E5EAF6E2108202
S1131E7011821282138214821582168217821086AE
S1131E801186128613861486158616861786109276
S1131E90C5261092C6261092C7261092C826109204
S1131EA0C1261092C2261092C3261092C426089509
S1131EB04F925F926F927F928F929F92AF92BF9256
S1131EC0CF92DF92EF92FF920F931F93CF93DF9302
S1131ED0CDB7DEB76497CDBFDEBF8C017A0188A48D
S1131EE099A4AAA4BBA48CA59DA5AEA5BFA5898BC6
S1131EF09A8BAB8BBC8B88A999A9AAA9BBA98D87FE
S1131F009E87AF87B88B8CA99DA9AEA9BFA98987E5
S1131F109A87AB87BC87072E000C880B990B49D294
S1131F202FED30EE4AE751E47FD39B01AC0137D16A
S1131F302AED3FE049E450E477D320E030E046E185
S1131F4054E498D169837A838B839C83B701FF0C13
S1131F50880B990B2ED22FED30EE4AE751E464D36F
S1131F609B01AC011CD12AED3FE049E450E45CD371
S1131F7020E030E046E154E47DD16D837E838F839D
S1131F80988729813A814B815C8108D120E030E037
S1131F9044EB52E46FD19B01AC012B013C0177FA75
S1131FA0709477F87094C501B401F8D06B017C018A
S1131FB027E137EB41ED58E3C301B20131D3882364
S1131FC054F427E137EB41ED58EBC301B2014BD197
S1131FD018160CF43DC0A301920169817A818B81AA
S1131FE09C8148D120E030E044E352E4D8D02B0176
S1131FF03C01C701B6017BD369837A838B839C83BD
S1132000C501B40174D39B01AC0169817A818B81D0
S11320109C81C4D0A301920107D369837A838B8303
S11320209C83C701B60123D16D837E838F839887F8
S1132030C501B4011CD19B01AC016D817E818F81EE
S11320409885ACD0A3019201EFD22B013C011AC0B8
S1132050C501B4014CD39B01AC016D817E818F819C
S11320609885E2D22B013C01C501B40100D19B014A
S1132070AC016D817E818F819885D6D269837A8304
S11320808B839C832AED3FE049E450E4C701B60109
S1132090C7D218164CF42AED3FE049EC50E4C701CE
S11320A0B6017CD06B017C012AED3FE049E450ECA1
S11320B0C701B601D8D018164CF02AED3FE049EC20
S11320C050E4C701B6016BD06B017C0129893A89C0
S11320D04B895C89C301B20162D02B013C012D857F
S11320E03E854F85588969817A818B819C8157D03F
S11320F04B015C010E94EB0169837A838B839C838F
S11321002AE037ED43EA5CE3AED01816A4F02AE0E7
S113211037ED43EA5CEB69817A818B819C8180D2C3
S113212088234CF020E030E0A90169857A858B850D
S11321309C8535D009C029813A814B815C816985B0
S11321407A858B859C852BD0D801CD92DD92ED923A
S1132150FC921397F801448255826682778218961E
S11321608D929D92AD92BC921B97648775878687EA
S11321709787C8016496CDBFDEBFDF91CF911F91D1
S11321800F91FF90EF90DF90CF90BF90AF909F9012
S11321908F907F906F905F904F9008955058BB2719
S11321A0AA270ED0F2C1BBD130F0C0D120F031F457
S11321B09F3F11F41EF4A0C10EF4E095E7FB96C115
S11321C0E92F05D280F3BA176207730784079507CE
S11321D018F071F49EF51DC20EF4E0950B2EBA2F83
S11321E0A02D0B01B90190010C01CA01A001112419
S11321F0FF27591B99F0593F50F4503E68F11A16C5
S1132200F040A22F232F342F4427585FF3CF469555
S113221037952795A795F0405395C9F77EF41F1677
S1132220BA0B620B730B840BBAF09150A1F0FF0F41
S1132230BB1F661F771F881FC2F70EC0BA0F621F2D
S1132240731F841F48F4879577956795B795F7951D
S11322509E3F08F0B3CF9395880F08F09927EE0FAF
S11322609795879508951ED108F481E0089566D165
S1132270E3959CC10CD089C159D140F050D130F0C4
S113228021F45F3F19F032C15111C4C135C19FD14E
S113229098F39923C9F35523B1F3951B550BBB2729
S11322A0AA2762177307840738F09F5F5F4F220FD6
S11322B0331F441FAA1FA9F333D00E2E3AF0E0E8CF
S11322C030D091505040E695001CCAF729D0FE2F1B
S11322D027D0660F771F881FBB1F261737074807AD
S11322E0AB07B0E809F0BB0B802DBF01FF27935863
S11322F05F4F2AF09E3F510568F0F8C08BC15F3FE5
S1132300ECF3983EDCF3869577956795B795F7954A
S11323109F5FC9F7880F911D9695879597F9089542
S1132320E1E0660F771F881FBB1F621773078407DE
S1132330BA0720F0621B730B840BBA0BEE1F88F7ED
S1132340E095089504D06894B11164C1089547D10B
S113235088F09F5790F0B92F9927B751A0F0D1F08A
S1132360660F771F881F991F1AF0BA95C9F712C014
S1132370B13081F04ED1B1E008954BC1672F782F71
S11323808827B85F39F0B93FCCF386957795679580
S1132390B395D9F73EF490958095709561957F4FEC
S11323A08F4F9F4F089597FB0EF4A9D03EC0E89439
S11323B009C097FB3EF490958095709561957F4F89
S11323C08F4F9F4F9923A9F0F92F96E9BB27939537
S11323D0F695879577956795B795F111F8CFFAF447
S11323E0BB0F11F460FF1BC06F5F7F4F8F4F9F4F78
S11323F016C0882311F096E911C0772321F09EE8D6
S1132400872F762F05C0662371F096E8862F70E03B
S113241060E02AF09A95660F771F881FDAF7880F15
S11324209695879597F90895E894F92F96EBFF23ED
S113243081F0121613061406440B9395F6958795AE
S11324407795679557954040FF23B9F71BC09927A7
S11324500895882351F49850D2F7872B762F652F4F
S1132460542F432F322F20E0B1F312161306140613
S1132470440B88233AF09A95440F551F661F771F23
S1132480881FCAF755234AF4440F551F11F460FFFF
S113249004C06F5F7F4F8F4F9F4F880F969587952E
S11324A097F90895990F0008550FAA0BE0E8FEEF7D
S11324B016161706E807F907C0F012161306E40704
S11324C0F50798F0621B730B840B950B39F40A26FD
S11324D061F0232B242B252B21F408950A2609F4DB
S11324E0A140A6958FEF811D811D089597F99F67DF
S11324F080E870E060E008959FEF80EC0895909587
S113250080957095609550954095309521953F4FF5
S11325104F4F5F4F6F4F7F4F8F4F9F4F0895002452
S11325200A941616170618060906089500240A9434
S113253012161306140605060895DECF50D0E8F3EC
S1132540E894E0E0BB279F57F0F02AED3FE049EC28
S113255006C0EE0FBB0F661F771F881F28F0B23A24
S113256062077307840728F0B25A620B730B840B5B
S1132570E3959A9572F7803830F49A95BB0F661FED
S1132580771F881FD2F79048BAC0092E0394000C15
S113259011F4882352F0BB0F40F4BF2B11F460FFF9
S11325A004C06F5F7F4F8F4F9F4F0895EF93E0FFFD
S11325B006C0A2EA2AED3FE049EC5FEB01DEE5DF6D
S11325C00F90039401FC9058ECEFF1E0A4C057FD88
S11325D09058440F551F59F05F3F71F04795880F8D
S11325E097FB991F61F09F3F79F087950895121624
S11325F013061406551FF2CF4695F1DF08C01616D0
S113260017061806991FF1CF869571056105089480
S11326100895E894BB2766277727CB0197F9089597
S113262041DF08F48FEF08950BD0AFCF78DF28F0A7
S11326307DDF18F0952309F059CF5ECF1124EACF3E
S1132640C6DFA0F3959FD1F3950F50E0551F629F0D
S1132650F001729FBB27F00DB11D639FAA27F00DF7
S1132660B11DAA1F649F6627B00DA11D661F829F1E
S11326702227B00DA11D621F739FB00DA11D621F03
S1132680839FA00D611D221F749F3327A00D611D20
S1132690231F849F600D211D822F762F6A2F112402
S11326A09F5750408AF0E1F088234AF0EE0FFF1F55
S11326B0BB1F661F771F881F91505040A9F79E3F8C
S11326C0510570F013CFA6CF5F3FECF3983EDCF3D7
S11326D0869577956795B795F795E7959F5FC1F7C9
S11326E0FE2B880F911D9695879597F908959F93D2
S11326F025DF0F9007FCEE5F59CF9F3F31F09150DB
S113270020F4879577956795B795880F911D9695D1
S1132710879597F908959F938F937F936F93FF9372
S1132720EF939B01AC0180DFEF91FF9105D02F91D6
S11327303F914F915F9178CFDF93CF931F930F9386
S1132740FF92EF92DF927B018C01689405C0DA2E30
S1132750EF0176DFFE01E894A5912591359145912D
S11327605591AEF3EF012CDDFE019701A801DA9437
S113277079F7DF90EF90FF900F911F91CF91DF9148
S1132780089597FB072E16F4009406D077FD08D021
S11327903CD007FC05D03EF4909581959F4F089559
S11327A0709561957F4F0895A29FB001B39FC001BA
S11327B0A39F700D811D1124911DB29F700D811D69
S11327C01124911D08950F93083090F0982F872FAE
S11327D0762F652F542F432F322F22270850F4CF02
S11327E0220F331F441F551F661F771F881F991F11
S11327F00A95B2F70F9108952A0D3B1D4C1D5D1DDE
S11328006E1D7F1D801F911F0895AA1BBB1B51E1E4
S113281007C0AA1FBB1FA617B70710F0A61BB70B4C
S1132820881F991F5A95A9F780959095BC01CD01F1
S113283008952F923F924F925F926F927F928F9260
S11328409F92AF92BF92CF92DF92EF92FF920F933B
S11328501F93CF93DF93CDB7DEB72B97CDBFDEBFEA
S11328606C017B018A01FC0116821782838181FF3E
S1132870BFC1CE0101963C01F6019381F70193FD9E
S1132880859193FF81917F01882309F4ADC185323D
S113289039F493FD859193FF81917F01853221F471
S11328A0B60190E0D3D1E8CF912C212C312CFFE15B
S11328B0F315D8F08B3279F038F4803279F0833222
S11328C0A1F4232D20611DC08D3261F0803369F4A1
S11328D0232D216016C0832D8260382EE32DE46001
S11328E03E2E2AC0F32DF8601DC037FC2DC020ED0C
S11328F0280F2A3040F08E32B9F436FC75C1232DEE
S11329002064322E19C036FE06C08AE0989E200D3F
S11329101124922E11C0EAE02E9E200D1124222EA5
S1132920F32DF0623F2E08C08C3621F4832D80688D
S1132930382E02C0883641F4F70193FD859193FF48
S113294081917F018111B3CF982F9F7D955493304E
S113295028F40C5F1F4F9FE399830DC0833631F039
S1132960833771F0833509F055C020C0F8018081A8
S113297089830E5F1F4F88248394912C530112C0C6
S11329802801F2E04F0E511CF801A080B18036FE00
S113299003C0692D70E002C06FEF7FEFC5014BD11A
S11329A04C018201F32DFF773F2E15C0280122E050
S11329B0420E511CF801A080B18036FE03C0692D7F
S11329C070E002C06FEF7FEFC5012AD14C01F32DF7
S11329D0F0683F2E820133FC19C0822D90E08816E6
S11329E09906A0F4B60180E290E030D12A94F5CFA4
S11329F0F50137FC859137FE81915F01B60190E0C6
S1132A0025D121102A9421E0821A9108811491047D
S1132A1079F7E1C0843611F0893639F5F80137FECB
S1132A2007C060817181828193810C5F1F4F08C050
S1132A3060817181072E000C880B990B0E5F1F4F6C
S1132A40F32DFF763F2E97FF09C0909580957095E2
S1132A5061957F4F8F4F9F4FF0683F2E2AE030E003
S1132A60A30130D1882E861844C0853731F4232D34
S1132A702F7EB22E2AE030E025C0932D997FB92E07
S1132A808F36C1F018F4883579F0AEC0803719F06C
S1132A90883721F0A9C0E92FE061BE2EB4FE0DC035
S1132AA0FB2DF460BF2E09C034FE0AC0292F266016
S1132AB0B22E06C028E030E005C020E130E002C0BC
S1132AC020E132E0F801B7FE07C0608171818281A4
S1132AD093810C5F1F4F06C06081718180E090E09C
S1132AE00E5F1F4FA301EED0882E8618FB2DFF77B3
S1132AF03F2E36FE0DC0232D2E7FA22E891458F4AE
S1132B0034FE0BC032FC09C0832D8E7EA82E05C076
S1132B10B82CA32C03C0B82C01C0B92CA4FE0FC040
S1132B20FE01E80DF11D8081803321F49A2D997EF8
S1132B30A92E09C0A2FE06C0B394B39404C08A2D82
S1132B40867809F0B394A3FC10C0A0FE06C0B214AA
S1132B5080F4280C922C9B180DC0B21458F4B601C2
S1132B6080E290E073D0B394F8CFB21418F42B1829
S1132B7002C0982C212CA4FE0FC0B60180E390E083
S1132B8065D0A2FE16C0A1FC03C088E790E002C095
S1132B9088E590E0B6010CC08A2D867851F0A1FE3C
S1132BA002C08BE201C080E2A7FC8DE2B60190E096
S1132BB04DD0891430F4B60180E390E047D09A9464
S1132BC0F8CF8A94F301E80DF11D8081B60190E0FD
S1132BD03DD08110F6CF222009F44ECEB60180E21A
S1132BE090E034D02A94F7CFF6018681978102C011
S1132BF08FEF9FEF2B96CDBFDEBFDF91CF911F915B
S1132C000F91FF90EF90DF90CF90BF90AF909F9087
S1132C108F907F906F905F904F903F902F9008958A
S1132C20FC010590615070400110D8F78095909593
S1132C308E0F9F1F0895FC01615070400190011098
S1132C40D8F7809590958E0F9F1F08950F931F932B
S1132C50CF93DF93FB01238121FD03C08FEF9FEF0F
S1132C602CC022FF16C0468157812481358142172A
S1132C70530744F4A081B1819D012F5F3F4F20830E
S1132C8031838C93268137812F5F3F4F268337838F
S1132C9014C08B01EC01FB010084F185E02D199532
S1132CA0892BE1F6D80116968D919C911797019680
S1132CB016968D939C931797CE01DF91CF911F9118
S1132CC00F910895FA01AA27283051F1203181F19A
S1132CD0E8946F936E7F6E5F7F4F8F4F9F4FAF4F20
S1132CE0B1E03ED0B4E03CD0670F781F891F9A1F33
S1132CF0A11D680F791F8A1F911DA11D6A0F711DE7
S1132D00811D911DA11D20D009F468943F912AE0F2
S1132D10269F11243019305D3193DEF6CF010895DA
S1132D20462F4770405D4193B3E00FD0C9F7F6CF0B
S1132D30462F4F70405D4A3318F0495D31FD4052D3
S1132D40419302D0A9F7EACFB4E0A6959795879569
S1132D5077956795BA95C9F7009761057105089548
S1132D609B01AC010A2E06945795479537952795F4
S1132D70BA95C9F7620F731F841F951FA01D08958C
S1072D80F894FFCFF1
S1132D848FC2F53E000000400000C0408FC2F53EF3
S1132D94000000400000C0400000003F01000500A6
S1132DA405001E000A0008000700050004000300D3
S1132DB4020001000000FFFFFEFFFDFFFCFFFBFF1C
S1132DC4F9FFF8FFF6FF30F818FC44FD70FE38FFF5
S1132DD49CFFD8FFFBFF050028006400C800900195
S10D2DE4BC02E803D00710276900C1
S9030000FC
