:1000000000C1000010C100000EC100000CC10000C2
:100010000AC1000008C1000006C1000004C10000C0
:1000200002C1000000C10000FEC00000FCC00000D2
:10003000FAC00000F8C00000F6C00000F4C00000E4
:10004000F2C00000F0C00000EEC00000ECC00000F4
:100050001BC40000E8C00000E6C00000E4C00000CF
:10006000E2C00000E0C00000DEC00000DCC0000014
:10007000DAC00000D8C00000D6C00000D4C0000024
:10008000D2C00000D0C00000CEC00000CCC0000034
:10009000CAC00000C8C00000C6C0000040C30000C5
:1000A00054C3000068C300007CC30000BCC0000053
:1000B000BAC00000B8C00000B6C00000B4C0000064
:1000C000B2C00000B0C00000AEC00000ACC0000074
:1000D000AAC00000A8C00000A6C00000A4C0000084
:1000E000A2C00000A0C000009EC000009CC0000094
:1000F0009AC0000098C0000096C0000094C00000A4
:1001000092C0000090C000008EC000008CC00000B3
:10011000ACC3000088C0000086C0000084C000009E
:1001200082C0000080C000007EC000007CC00000D3
:100130007AC0000078C0000076C0000074C00000E3
:1001400072C0000070C000006EC000006CC00000F3
:100150006AC0000068C0000066C0000064C0000003
:1001600062C0000060C000005EC000005CC0000013
:100170005AC0000058C0000056C0000054C0000023
:1001800052C0000050C000004EC000004CC0000033
:100190004AC0000048C0000046C0000044C0000043
:1001A00016C300003BC300003EC000003CC000007E
:1001B0003AC0000038C0000036C0000034C0000063
:1001C00032C0000030C000002EC000002CC0000073
:1001D0002AC0000028C0000026C0000024C0000083
:1001E00022C0000020C000001EC000001CC0000093
:1001F0001AC0000018C0000016C000004C44004C9B
:10020000460011241FBECFEFCDBFDFE3DEBF00E00D
:100210000CBF20E2A0E0B0E201C01D92A833B207FB
:10022000E1F759D33CC7ECCE80FF04C090E1909336
:10023000450603C090E19093460681FF04C090E21A
:100240009093450603C090E29093460682FF04C057
:1002500090E49093450603C090E49093460683FF94
:1002600004C080E880934506089580E880934606A0
:1002700008950F931F93CF93DF93082FC0E4D6E028
:1002800018E01D8382958F70CFDF1E8300001D83D1
:10029000802FCADF1E8381E28A95F1F70000DF918B
:1002A000CF911F910F91089594E090934606E1CF6E
:1002B000089594E090934506DCCF0895CF93DF93A3
:1002C000EC012196FC018491882331F0F2DFFE01DC
:1002D000849121968111FACFDF91CF91089590E416
:1002E000699F800D11248068DFCF089581E0DCDFF5
:1002F00087EE93E00197F1F700C000000895FF92A8
:100300000F931F93CF93DF93E0E4F6E08CEF8183AC
:1003100083EC99E00197F1F700C000008CE0868340
:10032000C3E000E416E0D8E0FD2EF801F58283E09A
:100330007BDFF801D68383EC99E00197F1F700C0E9
:100340000000C15091F7C0E4D6E018E01D8382E0C0
:100350006BDF1E83E3EFF1E03197F1F700C000009F
:1003600088E2A2DF88E0A0DF81E09EDF87EE93E0F5
:100370000197F1F700C0000086E096DF8CE094DF83
:10038000DF91CF911F910F91FF9008958F929F92CF
:10039000AF92BF92EF92FF921F93CF93DF93CDB7AF
:1003A000DEB72A97CDBFDEBF6115710581059105C6
:1003B00019F480E37EDF2FC010E00F2EFAE08F2EBD
:1003C000912CA12CB12CF02DEE24E394F12CEC0E09
:1003D000FD1EE10EF11C17FDFA94A50194013DD616
:1003E000F7016083622F732F842F952F1F5F611594
:1003F00071058105910541F711506AF0E1E0F0E0E7
:10040000EC0FFD1FE10FF11D17FDFA958081805D56
:1004100050DF11509AF72A96CDBFDEBFDF91CF9102
:100420001F91FF90EF90BF90AF909F908F90089595
:10043000AAECB1E092E09C93E82FF0E084911C924A
:1004400008950F931F93CF93DF93E0E5F0E088E0EA
:100450008583808180618083818184FFFDCFE0E49A
:10046000F0E014E010831183C0E4D2E01C8300E1CB
:10047000098380E2DDDF8C8781E2DADF8D870A8302
:100480001B8281E0888397E09093A200E0E2F6E08F
:1004900032E0328388A319A28E8393E09AA38283E9
:1004A00088A728E029A73E839AA7128388AB09ABC7
:1004B0001E839AAB228388AF88E189AF2E839AAFDF
:1004C0007894DF91CF911F910F910895E0E8F6E0C5
:1004D00090E19583A0E4B2E0D8968C91D89780689B
:1004E000D8968C9382E48A95F1F700C09683809128
:1004F0003620909137200895E0E8F6E090E8958363
:10050000A0E4B2E090968C919097806890968C933E
:1005100082E48A95F1F700C096838091342090910F
:1005200035200895E0E8F6E090E49583A0E4B2E099
:1005300098968C919897806898968C9382E48A9587
:10054000F1F700C09683809130209091312008957A
:10055000E0E8F6E090E29583A0E4B2E0D0968C91DA
:10056000D0978068D0968C9382E48A95F1F700C08A
:10057000968380913220909133200895E0E6F6E052
:1005800088E3818380E2868380E18683E0E0F9E08E
:1005900083E9818384E690E086A397A316A617A635
:1005A00081E080830895E0E6F6E087E0818382E0E1
:1005B000868384E086831092280910922909089581
:1005C000082E000C990B80932E0990932F0961112E
:1005D00007C0E0E6F6E080E2868380E18683089546
:1005E000613039F4E0E6F6E080E2858380E18583DE
:1005F0000895623039F4E0E6F6E080E2868380E137
:1006000085830895E0E6F6E080E2858380E18683D5
:100610000895082E000C990B8093280990932909BE
:10062000611107C0E0E6F6E082E0868384E086831D
:100630000895613039F4E0E6F6E082E0858384E0F5
:1006400085830895623039F4E0E6F6E082E086833F
:1006500084E085830895E0E6F6E082E0858384E027
:100660008683089580E28093A706089580E48093AE
:10067000A7060895E0E8F3E087E1828383E98083B9
:100680008DE2858381E0848308950F931F93CF9338
:10069000DF937894C0EAD6E08CE08A8384E08A878E
:1006A00028E02B878AE18A8B8B8B85E08987E0E4C1
:1006B000F6E08BE1808B818BE0E8F1E090E69083BF
:1006C0009FE0908700E018E0D8012C9328E613966D
:1006D0002C93888B898B88E782839287E0E0FBE00C
:1006E0008AE080838AE6838349DF5DDFE0E8F6E025
:1006F00080EF8183868380EE89838E8300DEA1DE96
:10070000B9DFE0E4F8E081E08683118287E080834E
:1007100006A317A3DF91CF911F910F9108951F9208
:100720000F920FB60F9211248F939F9380915002D6
:100730009091510280933420909335209F918F9116
:100740000F900FBE0F901F9018951F920F920FB62B
:100750000F9211248F939F93809152029091530294
:1007600080933020909331209F918F910F900FBEF6
:100770000F901F9018951F920F920FB60F92112491
:100780008F939F93809154029091550280933220D1
:10079000909333209F918F910F900FBE0F901F90D9
:1007A00018951F920F920FB60F9211248F939F935B
:1007B0008091560290915702809336209093372073
:1007C0009F918F910F900FBE0F901F9018951F92C1
:1007D0000F920FB60F9211240BB60F922F933F93E7
:1007E0004F935F936F937F938F939F93AF93BF9339
:1007F000EF93FF933BDFFF91EF91BF91AF919F91FB
:100800008F917F916F915F914F913F912F910F90B9
:100810000BBE0F900FBE0F901F9018951F920F9256
:100820000FB60F9211240BB60F922F933F934F9355
:100830005F936F937F938F939F93AF93BF93EF9348
:10084000FF9310DFFF91EF91BF91AF919F918F9137
:100850007F916F915F914F913F912F910F900BBEC0
:100860000F900FBE0F901F9018951F920F920FB60A
:100870000F9211248F9380E88093A5068F910F909B
:100880000FBE0F901F9018951F920F920FB60F92E8
:1008900011240BB60F922F933F934F935F936F9357
:1008A0007F938F939F93AF93BF93EF93FF93DEDE7E
:1008B000FF91EF91BF91AF919F918F917F916F9138
:1008C0005F914F913F912F910F900BBE0F900FBEF4
:1008D0000F901F901895D9DE1F921F921F921F92A2
:1008E0008DE38F9382EF8F9382E18F9387ED8F93C8
:1008F0000F2EF3E7AF2EF9EBBF2EF1ECCF2EFBE37B
:10090000DF2EF02DE12CF12C87012AEB39E44CE0AD
:100910005EE368E37EE98FEC9BE335D08DB79EB74D
:1009200008968DBF9EBFE8DDD1DDFCDD11DEDEDC8B
:1009300060E080E0D4DC8FEF91E0C0DC6091322099
:100940007091332080E090E021DD61E080E0C7DC41
:100950008CEF91E0B3DC609130207091312080E029
:1009600090E014DD60E070E080E291EC2DD160E079
:1009700070E080E291E473D18FE097E20197F1F7A4
:1009800000C00000D0CFAF92BF92CF92DF92EF9223
:10099000FF920F931F93CF93DF93CDB7DEB7E8E1BC
:1009A000F0E260837183828393832483358346835B
:1009B0005783E086F186028713871486158616868C
:1009C0001786108A118A128A138A148A158A168A3F
:1009D000178AE0E0F0E2A082B182C282D3828E85E3
:1009E0009F85A889B98984839583A683B7838A89DB
:1009F0009B89AC89BD8980879187A287B38714863C
:100A0000158616861786108A118A128A138A148A06
:100A1000158A168A178ADF91CF911F910F91FF9047
:100A2000EF90DF90CF90BF90AF9008954F925F927C
:100A30006F927F928F929F92AF92BF92CF92DF92EE
:100A4000EF92FF920F931F93CF93DF93CDB7DEB753
:100A50002C97CDBFDEBF4B015C0169017A0120E01C
:100A600030E64AEE56E4C701B60190D218164CF4AF
:100A700020E030E040E857E4C701B6013BD16B010C
:100A80007C01A7019601C501B40134D16B017C0141
:100A9000F80164877587868797879B01AC01648915
:100AA00075898689978926D169837A838B839C830C
:100AB000F8012089318942895389C701B6011BD1C8
:100AC0004B015C01F801608B718B828B938B2081D1
:100AD000318142815381C701B6015CD26D837E832F
:100AE0008F839887F80144805580668077802085C1
:100AF00031854285538569817A818B819C814AD277
:100B000069877A878B879C87A3019201C501B4010D
:100B100041D29B01AC016D817E818F819885EBD0A4
:100B200029853A854B855C85E6D069837A838B83FA
:100B30009C8320E030E048EC52E428D218165CF0A8
:100B400020E030E048EC52EC69817A818B819C8115
:100B500036D188230CF5A7019601C501B401CAD08E
:100B60009B01AC01F801608B718B828B938BC3016D
:100B7000B20110D29B01AC016D817E818F8198857D
:100B8000BAD09B01AC0169857A858B859C85B3D0F1
:100B900069837A838B839C8369817A818B819C8131
:100BA0002C96CDBFDEBFDF91CF911F910F91FF90AB
:100BB000EF90DF90CF90BF90AF909F908F907F90FD
:100BC0006F905F904F900895CF92DF92EF92FF92D7
:100BD0000F931F936B017C01809120089091210855
:100BE000BC0180E090E020D19B01AC0108E110E263
:100BF000C701B6011BDF6B017C0120E030E0A901D9
:100C0000C5D118163CF4C701B601DDD0862F63E0CC
:100C100000DD1AC020E030E0A901C701B601CFD045
:100C2000882344F4C701B6019058CDD0862F62E0E6
:100C3000F0DC0AC020E030E0A901C701B601BFD056
:100C4000811102C061E0E5DC1092200810922108B9
:100C50001F910F91FF90EF90DF90CF900895CF926A
:100C6000DF92EF92FF920F931F936B017C018091B3
:100C7000200B9091210BBC0180E090E0D5D09B012E
:100C8000AC0100E010E2C701B601D0DE6B017C01CF
:100C900020E030E0A9017AD118163CF4C701B60172
:100CA00092D0862F62E08CDC1AC020E030E0A901EF
:100CB000C701B60184D0882344F4C701B601905817
:100CC00082D0862F63E07CDC0AC020E030E0A901FE
:100CD000C701B60174D0811102C061E071DC1092CD
:100CE000200B1092210B1F910F91FF90EF90DF903E
:100CF000CF9008955058BB27AA270ED00DC1FED023
:100D000030F003D120F031F49F3F11F41EF4F3C012
:100D10000EF4E095E7FBE9C0E92F0FD180F3BA1795
:100D2000620773078407950718F071F49EF527C1D1
:100D30000EF4E0950B2EBA2FA02D0B01B9019001F6
:100D40000C01CA01A0011124FF27591B99F0593F3A
:100D500050F4503E68F11A16F040A22F232F342F82
:100D60004427585FF3CF469537952795A795F040D0
:100D70005395C9F77EF41F16BA0B620B730B840BE5
:100D8000BAF09150A1F0FF0FBB1F661F771F881F9D
:100D9000C2F70EC0BA0F621F731F841F48F48795F5
:100DA00077956795B795F7959E3F08F0B3CF9395E4
:100DB000880F08F09927EE0F97958795089571D0C1
:100DC00008F481E0089504D06894B111D9C0089561
:100DD000BCD088F09F5790F0B92F9927B751A0F059
:100DE000D1F0660F771F881F991F1AF0BA95C9F7BF
:100DF00012C0B13081F0C3D0B1E00895C0C0672FF8
:100E0000782F8827B85F39F0B93FCCF3869577956E
:100E10006795B395D9F73EF4909580957095619557
:100E20007F4F8F4F9F4F0895E89409C097FB3EF482
:100E300090958095709561957F4F8F4F9F4F992327
:100E4000A9F0F92F96E9BB279395F69587957795A5
:100E50006795B795F111F8CFFAF4BB0F11F460FF65
:100E60001BC06F5F7F4F8F4F9F4F16C0882311F0BD
:100E700096E911C0772321F09EE8872F762F05C0D1
:100E8000662371F096E8862F70E060E02AF09A956C
:100E9000660F771F881FDAF7880F9695879597F961
:100EA0000895990F0008550FAA0BE0E8FEEF1616FB
:100EB0001706E807F907C0F012161306E407F5074E
:100EC00098F0621B730B840B950B39F40A2661F0C2
:100ED000232B242B252B21F408950A2609F4A14065
:100EE000A6958FEF811D811D089597F99F6780E872
:100EF00070E060E008959FEF80EC089500240A946C
:100F00001616170618060906089500240A941216E4
:100F10001306140605060895092E0394000C11F417
:100F2000882352F0BB0F40F4BF2B11F460FF04C0C4
:100F30006F5F7F4F8F4F9F4F089557FD9058440F1D
:100F4000551F59F05F3F71F04795880F97FB991F28
:100F500061F09F3F79F087950895121613061406E5
:100F6000551FF2CF4695F1DF08C016161706180672
:100F7000991FF1CF86957105610508940895E8944D
:100F8000BB2766277727CB0197F908958ADF08F4F6
:100F90008FEF08950BD0C0CFB1DF28F0B6DF18F087
:100FA000952309F0A2CFA7CF1124EACFC6DFA0F383
:100FB000959FD1F3950F50E0551F629FF001729FEE
:100FC000BB27F00DB11D639FAA27F00DB11DAA1F0D
:100FD000649F6627B00DA11D661F829F2227B00D5A
:100FE000A11D621F739FB00DA11D621F839FA00DE5
:100FF000611D221F749F3327A00D611D231F849F35
:10100000600D211D822F762F6A2F11249F5750408B
:101010008AF0E1F088234AF0EE0FFF1FBB1F661F26
:10102000771F881F91505040A9F79E3F510570F0DF
:101030005CCFA6CF5F3FECF3983EDCF386957795C7
:101040006795B795F795E7959F5FC1F7FE2B880FDA
:10105000911D9695879597F90895A1E21A2EAA1BDE
:10106000BB1BFD010DC0AA1FBB1FEE1FFF1FA21758
:10107000B307E407F50720F0A21BB30BE40BF50B55
:10108000661F771F881F991F1A9469F760957095DE
:10109000809590959B01AC01BD01CF010895F89416
:0210A000FFCF80
:00000001FF
